:10036B000226000002330000022D000002420000B2
:10037B00C102C103C104C101093967657420783D0D
:06038B002A2A00012800EF
:100556005389F0438901758A33758CFEC28DD28C1E
:05056600D2A9D2AF2272
:10054000E4F5C9F5C875CC6675CDFC75CA6675CB82
:06055000FCD2CAD2AD226C
:05000600D2A8D28822FF
:0505AB00D2AAD28A2251
:10002E00EF146074046003020120E52AC3942D408E
:10003E000575A0E0802EE52AC39423400575A0F037
:10004E008022E52AC39419400575A0F88016E52A8A
:10005E00C3940F400575A0FC800AE52AC3940540A1
:10006E000375A0FEE5352405FFE433FE7C007D0A12
:10007E001201B5AC06AD077F0112058AE5352403E2
:10008E00FFE433FE7C007D0A1201B5AC06AD077F9E
:10009E0002120593E52A8054E538C3942D40057568
:1000AE00A0E0802EE538C39423400575A0F0802291
:1000BE00E538C39419400575A0F88016E538C39449
:1000CE000F400575A0FC800AE538C3940540037502
:1000DE00A0FEE5442405FFE433FE7C007D0A1201F8
:1000EE00B5AC06AD077F02120593E5382405FFE493
:1000FE0033FE7C007D0A1201B5AC06AD077F0412FB
:10010E000593E4FDFC7F03120593E4FDFC7F0112D1
:03011E0005932224
:1002770012055675A0FE12000612054012000E3038
:10028700011DC201E52A75F00A84E5F02430F53F27
:10029700E5372430F5407B007A007939120502E50D
:1002A7002A75F00A84E5F0FD7C007F01120593AD05
:1002B70037AC367F02120593D3E52594B4E5249431
:1002C700004017E5252451FFE52434FFFE7C007D1F
:1002D700241201608E368F3780A5E52524B4FFE40C
:1002E7003524FE7C007D241201608E368F37808F87
:030003000202F7FF
:1002F700C0E0C0F0C0D075D000C000C004C005C0C9
:1003070006C007200212D202752600752700752D38
:1003170000752E00D200803BC202C200AC26AD277A
:100327007E077FD01201608F2AAE45AF467C017DE4
:100337006812014EAC26AD271201608E248F25AEC0
:100347002DAF2E7C007D6412014EAC26AD27120125
:10035700608F35D007D006D005D004D000D0D0D0DC
:04036700F0D0E032C0
:03000B0002047E6E
:10047E00C0E0C0D0758A33758CFE0523E52370026B
:10048E0005220530E5307002052F0532E532700287
:10049E0005313000183002080527E52770020526C1
:1004AE0030B30AE5217006852645852746A2B3E4BA
:0804BE0033F521D0D0D0E0326B
:03002B000203DBF2
:1003DB00C0E0C0F0C083C082C0D075D000C000C0E8
:1003EB0001C002C003C004C005C006C007C2CF05D0
:1003FB002CE52C7002052B120525C3E52C94E8E5A2
:10040B002B94034008752B00752C00D201D007D01C
:10041B0006D005D004D003D002D001D000D0D0D06C
:08042B0082D083D0F0D0E03252
:10039100016100C105C186C107015E00025F000065
:100433003007360560E5607002055FD394B8E55F69
:10044300940B400FE4F55FF560D205300605C20654
:1004530075610330A624C207D206E4F55FF5603068
:100463000503C205227561012220A60B055EE4F592
:0A0473005E20A606D20722E4F55E23
:01047D00225C
:10056B00EF4E600F7D0C7CC7DCFEDDFCEF1F70F0E7
:03057B001E80EDF2
:01057E00225A
:1003A1000C08000102030405060708090A0B0C14D6
:0C03B1007E483D6D4B67774C7F6F8000ED
:09058A00AE0574082FF8A6062244
:0B057F00E4F58074142FF8E6F58022EC
:0705A400AF097E0002057F94
:10000E0053877F75985053890F438920758BFD75E3
:0B001E008DFDC2ABD28ED2AFD2AC225F
:08059C008F993099FDC29922EC
:060502008B628A6389642C
:10050800AB62AA63A964856582758300120121FF25
:0C051800600712059C056580E7E4F565AE
:0105240022B4
:1003BD000C52000102030405060708090A0B0A483E
:0D03CD0005DD46549C34245D0414014701F5
:09059300AE0574522FF8A60622F1
:1004C600E4F5A0EF24FE601014601714601E2403E8
:1004D6007022D283C2828004C283D282C2B6C2B7DD
:1004E6008012C2B4C2B5D2B6C2B78008C2B4C2B511
:0C04F600C2B6D2B774482DF8E6F5A0227B
:1005250074522547F8E6FD7C00AF471204C605471F
:0A053500E547C39403400375470136
:01053F002299
:030000000201EB0F
:0C01EB00787FE4F6D8FD758165020232D1
:10012100BB010CE58229F582E5833AF583E0225093
:1001310006E92582F8E622BBFE06E92582F8E222DD
:0D014100E58229F582E5833AF583E49322F7
:10014E00EF8DF0A4A8F0CF8CF0A428CE8DF0A42EC5
:02015E00FE227F
:10016000BC000BBE0029EF8DF084FFADF022E4CC83
:10017000F875F008EF2FFFEE33FEEC33FCEE9DEC4C
:10018000984005FCEE9DFE0FD5F0E9E4CEFD22ED92
:10019000F8F5F0EE8420D21CFEADF075F008EF2FDC
:1001A000FFED33FD4007985006D5F0F222C398FDCD
:0501B0000FD5F0EA226A
:1001B500C2D5EC30E709B2D5E4C39DFDE49CFCEE65
:1001C50030E715B2D5E4C39FFFE49EFE120160C37C
:1001D500E49DFDE49CFC800312016030D507C3E477
:0601E5009FFFE49EFE22D4
:1001F700020277E493A3F8E493A34003F68001F2A5
:1002070008DFF48029E493A3F85407240CC8C33308
:10021700C4540F4420C8834004F456800146F6DFD7
:10022700E4800B010204081020408090036BE47EF9
:10023700019360BCA3FF543F30E509541FFEE493CC
:10024700A360010ECF54C025E060A840B8E493A393
:10025700FAE493A3F8E493A3C8C582C8CAC583CABE
:10026700F0A3C8C582C8CAC583CADFE9DEE780BE76
:0103DA000022
:00000001FF
