:1006B700021B0032021D00000A0C50686173653D81
:0706C7002D2D2D000117325B
:10000E005389F0438901758AA4758CFFC28DD28CF9
:05001E00D2A9D2AF22BF
:10078800E4F5C9F5C8F5CC75CDDCF5CA75CBDCD276
:04079800CAD2AD22F2
:10065C00C3E509951CE508951B4005E4F508F5096B
:10066C00AF177E00AC1BAD1C12035AAC06AD07E4F1
:10067C001202AA7B0A7AD77923783C120126C0048D
:10068C00C005C006C007AC08AD09E41202AAA80454
:10069C00A905AA06AB07D007D006D005D0041202D4
:0B06AC002C60025003D2A722C2A7223C
:1003CF00C3E509951CE508951B4005E4F508F509FB
:1003DF00AE1DAF1E7C017D6812036CAC06AD07E449
:1003EF001202AAC004C005C006C007AC1BAD1CE4B6
:1003FF001202AAD003D002D001D000120126C004ED
:10040F00C005C006C007AC08AD09E41202AAA804D3
:10041F00A905AA06AB07D007D006D005D004120253
:10042F002C50030204BEAE1DAF1E7C017D6812036B
:10043F006CAC06AD07E41202AAC004C005C006C02A
:10044F0007AC1BAD1CE41202AAD003D002D001D01E
:10045F0000120126C004C005C006C007AF177E00FA
:10046F00AC1BAD1C12035AAC06AD07E41202AA7BFB
:10047F000A7AD77923783C120126D003D002D00113
:10048F00D000120035C004C005C006C007AC08ADCF
:10049F0009E41202AAA804A905AA06AB07D007D03F
:1004AF0006D005D00412022C60025003D2A622C23D
:0204BF00A62273
:1007330012000E12078812075212065C1203CFE54D
:0F07430016B401F51207CC8B188A19891A80EAAF
:03000B000207B039
:1007B000C0E0758AA4758CFF0509E509700205087B
:0307C000D0E03254
:03002B000204C10B
:1004C100C0E0C0F0C083C082C0D075D000C000C001
:1004D10001C002C003C004C005C006C007C2CFE509
:1004E1001664017069050BE50BC394644060750BDC
:1004F10000E51F94064051751F00AB18AA19A91AEF
:1005010090000712032D24D0FFE434FFFE7C007D10
:100511000A12035AC006C00790000612032D24D008
:10052100FFE434FFFE7D6412035AD0E02FFFD0E0D8
:100531003EFE90000812032D24D0FDEC34FFCD2F98
:10054100F51EED3EF51D8003751F00751600D007E1
:10055100D006D005D004D003D002D001D000D0D035
:09056100D082D083D0F0D0E0324A
:1007520053877F75985053890F438920758BFA759B
:0B0762008DFAC2ABD28ED2AFD2AC2217
:080003008F993099FDC299228A
:060710008B498A4A894B67
:10071600AB49AA4AA94B854C8275830012032DFF6B
:0C0726006007120003054C80E7E4F54C6E
:0107320022A4
:0707CC007B007A0079352261
:030023000206EAE8
:1006EA00C0E0C0D075D000C000C00730980FAF1F5F
:1006FA00051F74352FF8A699751601C298D007D030
:06070A0000D0D0D0E03267
:1006CE000921000A0A0A0A0A0A0A0A0B2A3F065BCD
:0B06DE004F666D7D077F6F000120015B
:0907C300AE0574212FF8A60622F0
:1005F600E4F580EF14B40800505490060E75F0032D
:10060600A4C58325F0C5837302062602062A0206C0
:100616002E02063202063602063E02064602064E44
:10062600D2A4800ED2A48012D2A48016D2A4801A9C
:10063600C2A4D2A3D2A28016C2A4D2A3C2A2800E02
:10064600C2A4C2A3D2A28006C2A4C2A3C2A2742A12
:060656002DF8E6F58022FC
:10076D0074212520F8E6FD7C00AF201205F605204A
:0A077D00E520C39409400375200134
:01078700224F
:10079C00EF4E600F7D027CC7DCFEDDFCEF1F70F0BE
:0307AC001E80EDBF
:0107AF002227
:040026007F2BDFFE4F
:01002A0022B3
:10002E00020318E86480F8E933E83360110460F0E5
:10003E00ED33EC337009E8FCE9FDEAFEEBFF220438
:10004E0060DED3EB9FEA9EE99DE8C2E78CF0C2F733
:10005E0095F0400CE8CCF8E9CDF9EACEFAEBCFFBFF
:10006E001202E385D0F05804700320D5B3E8047073
:10007E00075002B2D502032292D5EC0460F7E4CC0D
:10008E00C0E0C398F8603B94186008400DD0E0FBC8
:10009E000202FAE4FBFAC9FC8028E830E406E4C95F
:1000AE00FBE4CAFCE830E305E4C9CACBFCE854071C
:1000BE006010F8C3E913F9EA13FAEB13FBEC13FC27
:1000CE00D8F130F52FC3E49CFCEF9BFFEE9AFEEDCA
:1000DE0099FDD0E0FBEF4E4D4C701222DB03020374
:1000EE001FEC2CFCEF33FFEE33FEED33FDED30E76E
:1000FE00EB0202FAEF2BFFEE3AFEED39FDD0E0FBFC
:10010E0050130BBB0003020322ED13FDEE13FEEFA3
:08011E0013FFEC13FC0202FACE
:10012600EC4D6011E8497017ED33EC3304600DE4D3
:10013600FCFFFEFD22E933E8330470F802031812CF
:1001460002E358046009E4CC2481500628500902D1
:10015600032228400302031FC0E0EB4A7044B98023
:1001660006D0E0FB02030EEF4E701CBD8008EBFFCD
:10017600EAFEE9FD80EBE98DF0A4FEE5F002020F50
:10018600E9CDF9EAFEEBFFEF89F0A4FCE5F0CE89B4
:10019600F0A42EFFE435F0CD89F0A42DFEE435F071
:1001A6008067EF4E7005BD80D780C3EF8BF0A4AC9F
:1001B600F0EE8BF0A42CFCE435F0F8EF8AF0A42CDA
:1001C600E5F038FCE433CB8DF0A42CFCE5F03BF8ED
:1001D600EE8AF0A42CFCE5F038F8E433CF89F0A4DD
:1001E6002CFCE5F038CF3400CE89F0A42FFFE5F0E3
:1001F6003EFEE433C98DF0A42EFEE5F039CD8AF03B
:10020600A42FFFE5F03EFEE43DFD33D0E0FB5007B2
:100216000BBB000F020322EC2CFCEF33FFEE33FE88
:06022600ED33FD0202FAB7
:10022C0074F8CC6480CCC86480C8F58204604FC379
:10023C00EB9FF5F0EA9E42F0E99D42F0E89C45F018
:10024C00603C501DE5825FFFE582D313CB5BCBF4A2
:10025C002B5582FB50280ABA002409B900200880CB
:10026C001DE5825BFBE582D313CF5FCFF4C3132F65
:10027C005582FF50090EBE00050DBD00010CC3EBED
:10028C009FF5F0EA9E42F0E99D42F0E89C45F06053
:09029C0007CC4820E701B3EC2275
:1002A50075F020800E75F010800575F0087D007ED4
:1002B500007F003392D530D5031203C1EC334010D3
:1002C500EF33FFEE33FEED33FDEC33FCD5F0ED22DD
:0E02D500E5F0247EA2D513CC92E7CDCEFF2219
:1002E300E9D2E7C933E833F892D5EDD2E7CD33EC61
:0702F30033FC5002B2D522DA
:1002FA00EC30E7100FBF000C0EBE00080DBD000465
:10030A000BEB6014A2D5EB13FCED92E7FD2274FF10
:10031A00FCFDFEFF22E480F8A2D574FF13FC7D8069
:03032A00E480EF7D
:0300000002056A8C
:0C056A00787FE4F6D8FD75814C0205B1E5
:10032D00BB010CE58229F582E5833AF583E0225085
:10033D0006E92582F8E622BBFE06E92582F8E222CF
:0D034D00E58229F582E5833AF583E49322E9
:10035A00EF8DF0A4A8F0CF8CF0A428CE8DF0A42EB7
:02036A00FE2271
:10036C00BC000BBE0029EF8DF084FFADF022E4CC75
:10037C00F875F008EF2FFFEE33FEEC33FCEE9DEC3E
:10038C00984005FCEE9DFE0FD5F0E9E4CEFD22ED84
:10039C00F8F5F0EE8420D21CFEADF075F008EF2FCE
:1003AC00FFED33FD4007985006D5F0F222C398FDBF
:0503BC000FD5F0EA225C
:0E03C100C3E49FFFE49EFEE49DFDE49CFC224D
:10057600020733E493A3F8E493A34003F68001F261
:1005860008DFF48029E493A3F85407240CC8C33386
:10059600C4540F4420C8834004F456800146F6DF55
:1005A600E4800B01020408102040809006B7E47E28
:1005B600019360BCA3FF543F30E509541FFEE4934A
:1005C600A360010ECF54C025E060A840B8E493A311
:1005D600FAE493A3F8E493A3C8C582C8CAC583CA3C
:1005E600F0A3C8C582C8CAC583CADFE9DEE780BEF4
:0106E9000010
:00000001FF
