:100A960001260B010A00011D00012A00011E0D019D
:100AA6002B32041843A20000090B73657420783DAD
:030AB6002D2D00E3
:1006B500D3E5099520E508951F40030208A0E51F2D
:1006C500C313FEE52013FFD3E5099FE5089E5004FB
:1006D500D2A78002C2A7E4FFFE7D347C43AB1BAAF0
:1006E5001AA919A8181202CC600540030207C0E434
:1006F500FBFA79B47843AF1BAE1AAD19AC181202E8
:100705002FC004C005C006C007AC1FAD20E412030E
:100715004AD003D002D001D000120126C004C00582
:10072500C006C007E51FC313FCE52013FDE4120353
:100735004AD003D002D001D000120035C004C00554
:10074500C006C007AC08AD09E412034AA804A90510
:10075500AA06AB07D007D006D005D0041202CC609C
:10076500025055E4FBFA79B47843AF1BAE1AAD19C4
:10077500AC1812022FC004C005C006C007AC1FADDF
:1007850020E412034AD003D002D001D00012012682
:10079500C004C005C006C007AC08AD09E412034A91
:1007A500A804A905AA06AB07D007D006D005D00432
:1007B5001202CC4003D2A622C2A622E4FFFE7D345B
:1007C5007CC3AB1BAA1AA919A818120035E4FBFAB9
:1007D50079B4784312022FC004C005C006C007AC27
:1007E5001FAD20E412034AD003D002D001D000127D
:1007F5000126C004C005C006C007E51FC313FCE5FC
:100805002013FDE412034AD003D002D001D0001218
:100815000035C004C005C006C007AC08AD09E41228
:10082500034AA804A905AA06AB07D007D006D00538
:10083500D0041202CC6002505FE4FFFE7D347CC31D
:10084500AB1BAA1AA919A818120035E4FBFA79B44A
:10085500784312022FC004C005C006C007AC1FAD07
:1008650020E412034AD003D002D001D000120126A1
:10087500C004C005C006C007AC08AD09E412034AB0
:10088500A804A905AA06AB07D007D006D005D00451
:100895001202CC4003C2A622D2A622E4F508F5092D
:0108A5002230
:10000E005389F0438901758A33758CFEC28DD28C6B
:05001E00D2A9D2AF22BF
:100D7F00E4F5C9F5C875CC6675CDFC75CA6675CB3B
:060D8F00FCD2CAD2AD2225
:10046F00C2A512000E120D7F120D64E4FF120C656F
:10047F008F26E52675F00A84240BF51EFD7C007E81
:10048F00077FD012040C8E1F8F20E52675F00A848B
:10049F00AFF07E007C007D241203FAAC06AD07E4BA
:1004AF0012034A8F1B8E1A8D198C18E4FDFC7F01E5
:1004BF00120DDBE4FDFC7F02120DDBE52675F00A61
:1004CF0084FD7C007F03120DDBE52675F00A84E5C1
:1004DF00F0FD7C007F04120DDBE4FDFC7F05120DA7
:1004EF00DBE4FDFC7F06120DDBE4FDFC7F07120D44
:1004FF00DBE4FDFC7F08120DDB1206B5E51DB40130
:10050F0009120DEB8B218A228923E52760EBE4F595
:10051F0027120BC98F1C120BFD8F25E51C64017070
:10052F004BE526D3945A5044740A2526F52675F0C8
:10053F000A84FD7C007F03120DDBE52675F00A842B
:10054F00E5F0FD7C007F04120DDBE526FD7C00E469
:10055F00FF120CE4E52675F00A84240BF51EFD7CD2
:10056F00007E077FD012040C8E1F8F20E51C6402C3
:10057F00704BE526C3940A404474F62526F526757C
:10058F00F00A84FD7C007F03120DDBE52675F00A6F
:10059F0084E5F0FD7C007F04120DDBE526FD7C0079
:1005AF00E4FF120CE4E52675F00A84240BF51EFD1A
:1005BF007C007E077FD012040C8E1F8F20E52564F0
:1005CF0001706AE526C3946350630526E52675F02E
:1005DF000A84FD7C007F03120DDBE52675F00A848B
:1005EF00E5F0FD7C007F04120DDBE526FD7C00E4C9
:1005FF00FF120CE4E52675F00A84240BF51EFD7C32
:10060F00007E077FD012040C8E1F8F20E52675F019
:10061F000A84AFF07E007C007D241203FAAC06AD95
:10062F0007E412034A8F1B8E1A8D198C18E5256467
:10063F00026003020508E526D39400500302050863
:10064F001526E52675F00A84FD7C007F03120DDB6D
:10065F00E52675F00A84E5F0FD7C007F04120DDBC2
:10066F00E526FD7C00E4FF120CE4E52675F00A8414
:10067F00240BF51EFD7C007E077FD012040C8E1F0D
:10068F008F20E52675F00A84AFF07E007C007D2474
:10069F001203FAAC06AD07E412034A8F1B8E1A8DB4
:0606AF00198C1802050879
:03000B00020DA93A
:100DA900C0E0758A33758CFE0509E50970020508EE
:030DB900D0E03255
:03002B000208A622
:1008A600C0E0C0F0C083C082C0D075D000C000C018
:1008B60001C002C003C004C005C006C007C2CF0500
:1008C60015E51570020514C3940AE5149400400951
:1008D600751400751500752701120D49E51D640193
:1008E60060030209890517E51770020516C394E827
:1008F600E51694035003020989751600751700E57D
:100906002A94044078752A00AB21AA22A9239000D4
:10091600061203CD24D075F00AA4FF900007120337
:10092600CD24D02FF52675F00A84FD7C007F0312B6
:100936000DDBE52675F00A84E5F0FD7C007F0412E8
:100946000DDBE52675F00A84240BF51EFD7C007E82
:10095600077FD012040C8E1F8F20E52675F00A84BF
:10096600AFF07E007C007D241203FAAC06AD07E4EE
:1009760012034A8F1B8E1A8D198C188003752A0054
:10098600751D00D007D006D005D004D003D002D004
:0E09960001D000D0D0D082D083D0F0D0E0329B
:100D9500EF4E600F7D027CC7DCFEDDFCEF1F70F0BF
:030DA5001E80EDC0
:010DA8002228
:040026007F2BDFFE4F
:01002A0022B3
:0C0AB900015600015700015800015900CF
:100AFA00E4FFA2B033FEE5561460121460191460C4
:100B0A002D2403702FEE702C7556018027EE70216C
:100B1A00F557755602801DEE60047F018013055754
:100B2A00E557C39464400D7F037556038006EE6053
:040B3A0003E4F55685
:010B3E002294
:100BC900E4FD120AFAE558146012047024BF010802
:100BD900E4F5597558018019AD078015BF01047DE9
:100BE90002800B0559E559C3943240057D01E4F5AE
:030BF90058AF05ED
:010BFC0022D6
:100CE4008F668C678D68120DD27FA0120C95120D41
:100CF400BCAF66120C95120DBCAF68120C95120DA8
:040D0400BC020DE43C
:020C65008F6698
:100C6700120DD27FA0120C95120DBCAF66120C9517
:100C7700120DBC120DD27FA1120C95120DBC120DD4
:0D0C87002B8F677F01120DC8120DE4AF67BF
:010C9400223D
:090DD200D2A0D2A1C2A0C2A1224C
:070DE400C2A0D2A1D2A0229F
:020C9500AD07A9
:100C9700E4FB74807E00A803088006CEA2E713CE8B
:100CA70013D8F8FFEDF582EF558224FF92A0D2A169
:060CB700C2A10BBB08DC2A
:010CBD002214
:100D2B00E4FFD2A0FED2A130A00D7480A8060880EB
:0D0D3B0002C313D8FC4207C2A10EBE08E897
:010D48002288
:0A0DC800EF24FF92A0D2A1C2A122E5
:0B0DBC00D2A0D2A1A2A0E433FFC2A18C
:010DC7002209
:100AC500092D000A0A0A0A0A0A0A0A0C363F065BB9
:0C0AD5004F666D7D077F6F0040012C0113
:090DDB00AE05742D2FF8A60622C6
:100A3000E4F580EF14B408005054900A4875F003B0
:100A4000A4C58325F0C58373020A60020A64020A02
:100A500068020A6C020A70020A78020A80020A8896
:100A6000D2A4800ED2A48012D2A48016D2A4801A5E
:100A7000C2A4D2A3D2A28016C2A4D2A3C2A2800EC4
:100A8000C2A4C2A3D2A28006C2A4C2A3C2A27436C8
:060A90002DF8E6F58022BE
:100D4900742D252CF8E6FD7C00AF2C120A30052CF9
:0A0D5900E52CC394094003752C013A
:010D6300226D
:0C0AE100015A00015B00015C00015D0097
:100B3F00E4FFA2B133FEE55A146012146019146079
:100B4F002D2403702FEE702C755A018027EE702123
:100B5F00F55B755A02801DEE60047F018013055B03
:100B6F00E55BC39464400D7F03755A038006EE6006
:040B7F0003E4F55A3C
:010B8300224F
:100BFD00E4FD120B3FE55C146012047024BF010884
:100C0D00E4F55D755C018019AD078015BF01047DAC
:100C1D0002800B055DE55DC3943240057D01E4F571
:030C2D005CAF05B4
:010C300022A1
:0C0AED00015E00015F000160000161007B
:100B8400E4FFA2B233FEE55E14601214601914602F
:100B94002D2403702FEE702C755E018027EE7021DA
:100BA400F55F755E02801DEE60047F018013055FB2
:100BB400E55FC39464400D7F03755E038006EE60B9
:040BC40003E4F55EF3
:010BC800220A
:100C3100E4FD120B84E560146012047024BF010806
:100C4100E4F5617560018019AD078015BF01047D70
:100C510002800B0561E561C3943240057D01E4F535
:030C610060AF057C
:010C6400226D
:100D640053877F75985053890F438920758BFA7583
:0B0D74008DFAC2ABD28ED2AFD2AC22FF
:080003008F993099FDC299228A
:060D08008B628A6389641E
:100D0E00AB62AA63A9648565827583001203CDFF69
:0C0D1E006007120003056580E7E4F5653E
:010D2A0022A6
:070DEB007B007A007942222F
:03002300020CBE0E
:100CBE00C0E0C0D075D000C000C00730980FAF2A7A
:100CCE00052A74422FF8A699751D01C298D007D037
:060CDE0000D0D0D0E0328E
:10002E000203B8E86480F8E933E83360110460F045
:10003E00ED33EC337009E8FCE9FDEAFEEBFF220438
:10004E0060DED3EB9FEA9EE99DE8C2E78CF0C2F733
:10005E0095F0400CE8CCF8E9CDF9EACEFAEBCFFBFF
:10006E0012038385D0F05804700320D5B3E80470D2
:10007E00075002B2D50203C292D5EC0460F7E4CC6D
:10008E00C0E0C398F8603B94186008400DD0E0FBC8
:10009E0002039AE4FBFAC9FC8028E830E406E4C9BE
:1000AE00FBE4CAFCE830E305E4C9CACBFCE854071C
:1000BE006010F8C3E913F9EA13FAEB13FBEC13FC27
:1000CE00D8F130F52FC3E49CFCEF9BFFEE9AFEEDCA
:1000DE0099FDD0E0FBEF4E4D4C701222DB03020374
:1000EE00BFEC2CFCEF33FFEE33FEED33FDED30E7CE
:1000FE00EB02039AEF2BFFEE3AFEED39FDD0E0FB5B
:10010E0050130BBB00030203C2ED13FDEE13FEEF03
:08011E0013FFEC13FC02039A2D
:10012600EC4D6011E8497017ED33EC3304600DE4D3
:10013600FCFFFEFD22E933E8330470F80203B8122F
:10014600038358046009E4CC248150062850090230
:1001560003C22840030203BFC0E0EB4A7044B980E3
:1001660006D0E0FB0203AEEF4E701CBD8008EBFF2D
:10017600EAFEE9FD80EBE98DF0A4FEE5F002020F50
:10018600E9CDF9EAFEEBFFEF89F0A4FCE5F0CE89B4
:10019600F0A42EFFE435F0CD89F0A42DFEE435F071
:1001A6008067EF4E7005BD80D780C3EF8BF0A4AC9F
:1001B600F0EE8BF0A42CFCE435F0F8EF8AF0A42CDA
:1001C600E5F038FCE433CB8DF0A42CFCE5F03BF8ED
:1001D600EE8AF0A42CFCE5F038F8E433CF89F0A4DD
:1001E6002CFCE5F038CF3400CE89F0A42FFFE5F0E3
:1001F6003EFEE433C98DF0A42EFEE5F039CD8AF03B
:10020600A42FFFE5F03EFEE43DFD33D0E0FB5007B2
:100216000BBB000F0203C2EC2CFCEF33FFEE33FEE8
:06022600ED33FD02039A16
:10022C000203C2EC5D046005E8590470030203B8D4
:10023C00120383580460F6EC4860F2EC7004FDFE87
:10024C00FF22C860DB2481C85009C39860025006A5
:10025C000203BF9850CAF582E9294B4A7005AB825C
:10026C000203AE75F0007C1A7880C3EF9BEE9AED1A
:10027C0099400DC3EF9BFFEE9AFEED99FDE842F01D
:10028C00DC23ACF0D0E0FFD0E0FED0E0FDAB822070
:10029C00E7101BEB60BAEC2CFCEF33FFEE33FEEDFA
:1002AC0033FD02039AE803F830E705C0F075F0005F
:1002BC00EF2FFFEE33FEED33FD40B830E7C280AADE
:1002CC0074F8CC6480CCC86480C8F58204604FC3D9
:1002DC00EB9FF5F0EA9E42F0E99D42F0E89C45F078
:1002EC00603C501DE5825FFFE582D313CB5BCBF402
:1002FC002B5582FB50280ABA002409B9002008802B
:10030C001DE5825BFBE582D313CF5FCFF4C3132FC4
:10031C005582FF50090EBE00050DBD00010CC3EB4C
:10032C009FF5F0EA9E42F0E99D42F0E89C45F060B2
:09033C0007CC4820E701B3EC22D4
:1003450075F020800E75F010800575F0087D007E33
:10035500007F003392D530D503120461EC33401091
:10036500EF33FFEE33FEED33FDEC33FCD5F0ED223C
:0E037500E5F0247EA2D513CC92E7CDCEFF2278
:10038300E9D2E7C933E833F892D5EDD2E7CD33ECC0
:0703930033FC5002B2D52239
:10039A00EC30E7100FBF000C0EBE00080DBD0004C4
:1003AA000BEB6014A2D5EB13FCED92E7FD2274FF70
:1003BA00FCFDFEFF22E480F8A2D574FF13FC7D80C9
:0303CA00E480EFDD
:030000000209A44E
:0C09A400787FE4F6D8FD7581680209EB4D
:1003CD00BB010CE58229F582E5833AF583E02250E5
:1003DD0006E92582F8E622BBFE06E92582F8E2222F
:0D03ED00E58229F582E5833AF583E4932249
:1003FA00EF8DF0A4A8F0CF8CF0A428CE8DF0A42E17
:02040A00FE22D0
:10040C00BC000BBE0029EF8DF084FFADF022E4CCD4
:10041C00F875F008EF2FFFEE33FEEC33FCEE9DEC9D
:10042C00984005FCEE9DFE0FD5F0E9E4CEFD22EDE3
:10043C00F8F5F0EE8420D21CFEADF075F008EF2F2D
:10044C00FFED33FD4007985006D5F0F222C398FD1E
:05045C000FD5F0EA22BB
:0E046100C3E49FFFE49EFEE49DFDE49CFC22AC
:1009B00002046FE493A3F8E493A34003F68001F2EA
:1009C00008DFF48029E493A3F85407240CC8C33348
:1009D000C4540F4420C8834004F456800146F6DF17
:1009E000E4800B0102040810204080900A96E47E07
:1009F000019360BCA3FF543F30E509541FFEE4930C
:100A0000A360010ECF54C025E060A840B8E493A3D2
:100A1000FAE493A3F8E493A3C8C582C8CAC583CAFD
:100A2000F0A3C8C582C8CAC583CADFE9DEE780BEB5
:010AF90000FC
:00000001FF
