:020000040800F2
:10000000D8050020F1010008D9290008FD220008C8
:10001000D52900087707000885390008000000008E
:10002000000000000000000000000000692D000832
:10003000F507000800000000DD2900086B2D00080E
:100040000B0200080B0200080B0200080B0200085C
:100050000B0200080B0200080B0200080B0200084C
:100060000B0200080B0200080B0200087D070008C5
:100070000B0200080B0200080B0200080B0200082C
:100080000B020008000000000B0200080B02000831
:100090000B0200080B0200080B0200080B0200080C
:1000A0000B0200080B0200080B0200080B020008FC
:1000B0000B0200080B0200080B0200080B020008EC
:1000C0000B0200080B0200080B0200080B020008DC
:1000D0000B020008753900080B0200080B0200082B
:1000E0000B0200080B0200080B0200080B020008BC
:1000F0000B0200080B0200080B02000800000000C1
:10010000000000000B020008000000000B020008C5
:100110000B020008000000000B0200080B020008A0
:100120000B0200080B0200080B0200080B0200087B
:100130000B02000800000000000000000B02000895
:100140000B0200080B020008000000000000000085
:10015000000000000000000000000000000000009F
:100160000000000000000000000000000B0200087A
:100170000B0200080000000000000000000000006A
:10018000000000000B02000800000000000000005A
:10019000000000000000000000000000000000005F
:1001A00000000000000000000B0200080B02000825
:1001B0000B0200080B0200080B0200080000000000
:1001C000000000000B02000800000000000000001A
:1001D0000B0200080B020008DFF810D000F04AFA0A
:1001E000004800475D440008AFF30080D8050020B8
:1001F0000648804706480047FEE7FEE7FEE7FEE7C1
:10020000FEE7FEE7FEE7FEE7FEE7FEE7DD2D00087E
:10021000D90100082DE9F05F0546002092469B4673
:1002200088460646814640241BE02846414647460C
:10023000224600F057F853465A46C01A914110D34F
:1002400011461846224600F03EF82D1A67EB0108C9
:100250004F4622460120002100F035F817EB000937
:100260004E41201EA4F10104DFDC484631462A46F7
:100270004346BDE8F09FD2B201E000F8012B491ED1
:10028000FBD270470022F6E710B513460A46044633
:100290001946FFF7F0FF204610BD30B50B4601466A
:1002A00000202022012409E021FA02F59D4205D315
:1002B00003FA02F5491B04FA02F52844151EA2F1BF
:1002C0000102F1DC30BD202A04DB203A00FA02F101
:1002D000002070479140C2F1200320FA03F3194334
:1002E00090407047202A04DB203A21FA02F00021D6
:1002F000704721FA02F3D040C2F120029140084336
:10030000194670472DE9FE4F804681EA0300C00F71
:100310000C46009021F0004123F00045B8EB0200AC
:10032000A94105D24046214690461C460B4602464E
:1003300023F00040104347D0270DC7F30A00C3F352
:100340000A510290401A019040286BDAC3F313005F
:1003500040F4801B0098924620B10023D2EB030AA0
:1003600063EB0B0B01985946C0F140025046FFF772
:10037000AAFF06460D4650465946019A00F08CF9F0
:1003800010EB08006141002487EA115284EAE77308
:100390001A4340D0009A62B3019A012A4FEA0752E9
:1003A00015DC001B61EB02014FF0004202EA07522C
:1003B000CDE90042001C41F5801132462B4600F089
:1003C0008CF903B0BDE8F08F40462146F9E7001BE9
:1003D00061EB0201001C41F5801300185B412018FD
:1003E000A2F5001747EB030140EAD570B6196D413D
:1003F00011E06D084FEA360645EAC0754FEA07522C
:10040000001B61EB0201001C41F5801149084FEA15
:1004100030000019514132462B4603B0BDE8F04F81
:1004200000F04CB90098012240000023D0EB0202FA
:1004300063EBE073009821464FEAE074B8EB0000EC
:1004400061EB0401E9E783F000435BE781F00041E1
:1004500058E72DE9FE4F81EA030404F0004421F03F
:10046000004100944FF0000B23F0004350EA0104D8
:100470005ED052EA03045BD0C3F30A54C1F30A55B9
:100480002C44A4F2F3340194A0FB0254C1F31301F1
:1004900041F48011C3F3130343F4801301FB0244BE
:1004A00000FB034E840A970A44EA815447EA8357C3
:1004B000A4FB076802958D0A05FB07854FEA932C7C
:1004C00004FB0C542705029D4FEA065847EA1637ED
:1004D000B5EB08056EEB070C870E920E47EA811705
:1004E00042EA8312A7FB0201B6EB0B0164EB0004A6
:1004F0002B0D43EA0C335E1844EB1C50DA46514690
:10050000E7FB0201C5F313044FEA0B3343EA14532C
:100510004FEA0432019C43EA0603A4F10C0402945E
:10052000009CCDE900B400F0D8F803B0BDE8F08F2E
:1005300000200146F9E72DE9F04D81EA030404F0BB
:10054000004B21F0004514464FF0000A23F0004113
:1005500050EA050220D054EA01021DD0C5F30A5723
:100560000246C5F31303C1F31300C1F30A5640F466
:10057000801543F48013A7EB0608101BD64608F23B
:10058000FD3873EB050002D308F1010801E0921871
:100590005B41B8F1000F03DA00200146BDE8F08DA1
:1005A00000204FF48011064684460EE0171B73EBC3
:1005B000050705D3121B63EB050306434CEA010C48
:1005C00049084FEA300092185B4150EA0107EDD12B
:1005D00052EA030012D082EA040083EA05010843CC
:1005E00005D0101BAB4106D20122002306E00022F9
:1005F0004FF0004302E06FF0010253101AEB0600C7
:100600004CEB085110EB0A0041EB0B01BDE8F04D3B
:1006100000F054B8C1F30A52C1F3130140F2FF33A2
:1006200041F480119A4202DA00200146704740F2FC
:1006300033439A42A2F2334202DC5242FFF752BEE7
:10064000FFF741BE30B5041E71F1000404DB4FF02A
:100650000044404264EB0101141E73F1000405DB09
:100660001C464FF00043524263EB0403994208BF1B
:10067000904230BD064C074D06E0E06840F00103B3
:1006800094E8070098471034AC42F6D3FFF7A8FD72
:100690006457000884570008202A06DBCB17203A4D
:1006A00041FA02F043EAE07306E041FA02F3D04077
:1006B000C2F12002914008431946704710B5141E3C
:1006C00073F1000408DA401C41F1000192185B410B
:1006D0001A4301D120F0010010BD2DE9F04D9246E2
:1006E0009B4611B1B1FA81F202E0B0FA80F22032F9
:1006F0009046FFF7E8FD04460F4640EA0A0041EA4B
:100700000B0153465A46084313D0114653EA0100E1
:1007100019D0C8F140025046FFF7E4FD05460E46E9
:10072000504659464246FFF7CEFD084305D001200A
:1007300004E020463946BDE8F08D0020054346EA36
:10074000E0762C4337430A986305E40AA0EB0800DF
:100750000022FD0A44EA47540A3002D5002001462F
:10076000E9E7010510196941DDE90845001969410A
:10077000BDE8F04DA2E700BFFEE7000010B502485B
:1007800000F0D0F810BD00007401002030B50E4D0F
:100790000468AC4201D20D4901E00C4920310B46FE
:1007A0000478083C1425B4FBF5F2446CA40803EB70
:1007B00084048464054C8034C46402F01F05012461
:1007C000AC40046530BD000008040240000802404F
:1007D00001794A1E064B03EB82024265044A40320D
:1007E00082654A1E02F01F0301229A40C2657047CB
:1007F000000902407047002109E0002201E0531C7B
:100800009AB240F6B8339A42F9DB4B1C99B2814256
:10081000F3DB704772B600BFFEE70146002091F897
:100820002520022A03D00422CA63012027E00A6897
:10083000126822F00E020B681A608A6C126822F4A9
:1008400080728B6C1A600A68126822F001020B68D1
:100850001A6091F8442002F01F0301229A400B6CA9
:100860005A60D1E913325A604A6D42B14A6D12683A
:1008700022F480724B6D1A60D1E916325A6001225F
:1008800081F8252000BF002281F8242000BF704796
:1008900070B50446002594F8250002280BD00420EA
:1008A000E063012084F8250000BF002084F82400C4
:1008B00000BF012534E02068006820F00E002168A8
:1008C00008602068006820F0010021680860A06CC2
:1008D000006820F48070A16C086094F8440000F077
:1008E0001F0101208840216C4860D4E91310486042
:1008F000606D40B1606D006820F48070616D0860CB
:10090000D4E916104860012084F8250000BF0020BB
:1009100084F8240000BFA06B10B12046A16B88476B
:10092000284670BD70B50446206C056820680668CE
:1009300094F8440000F01F01042088402840E0B1F2
:1009400006F00400C8B12068006800F0200028B953
:100950002068006820F004002168086094F84400D2
:1009600000F01F0104208840216C4860206B0028A3
:1009700056D02046216B884752E094F8440000F09E
:100980001F0102208840284018B306F0020000B37F
:100990002068006800F0200040B92068006820F05E
:1009A0000A0021680860012084F8250094F84400BA
:1009B00000F01F0102208840216C486000BF002029
:1009C00084F8240000BFE06A50B32046E16A8847FB
:1009D00026E094F8440000F01F01082088402840D9
:1009E000F0B106F00800D8B12068006820F00E00D1
:1009F0002168086094F8440000F01F01012088403D
:100A0000216C48600120E06384F8250000BF0020CD
:100A100084F8240000BF606B10B12046616B8847EA
:100A200070BD000070B504460CB9012070BD2F499F
:100A3000206888420BD22E492068401A1421B0FB4E
:100A4000F1F0800060642A48083820640AE02749F1
:100A50002068401A1421B0FBF1F080006064234844
:100A600008382064022084F825002068056847F6CD
:100A7000F0708543D4E902010843216908436169A4
:100A80000843A1690843E1690843216A0843054313
:100A9000206805602046FFF779FEA068B0F5804F1A
:100AA00001D1002060602079A16C0860D4E91310A6
:100AB0004860606860B16068042809D82046FFF784
:100AC00087FE0020616D0860D4E91610486003E0DD
:100AD00000206065A065E0650020E063012084F8E7
:100AE0002500002084F8240000BF9FE7080402408E
:100AF0000800024070B5044600F00AF90646254693
:100B0000681C10B104480068054400BF00F000F9FB
:100B1000801BA842FAD370BD1000002078B50346B0
:100B20000022D0E0012696400D6805EA0604002C5C
:100B300072D04D68012D08D04D68022D05D04D684A
:100B4000112D02D04D68122D13D19868560003253F
:100B5000B540A8435600CD68B54028439860586812
:100B600001259540A8430D79C5F30015954028430C
:100B70005860D86856000325B540A84356008D68D4
:100B8000B5402843D8604D68022D02D04D68122D23
:100B900013D1D60803F1200555F826005507EE0EAF
:100BA0000F25B540A8435607F60E0D69B5402843FA
:100BB000D60803F1200545F82600186856000325DD
:100BC000B540A8430D7905F003055600B54028430C
:100BD00018604D6805F08055B5F1805F72D100BF97
:100BE0003C4D2D6E45F001053A4E356635462D6E6D
:100BF00005F00105009500BF00BF4FEAB635960825
:100C000055F8260095072E0F0F25B540A843B3F1E0
:100C1000904F02D100251AE054E02F4DAB4201D194
:100C2000012514E02D4DAB4201D102250FE02C4DE2
:100C3000AB4201D103250AE02A4DAB4201D1042584
:100C400005E0294DAB4201D1052500E006259607B8
:100C5000360FB5402843254D960845F82600244D0B
:100C60002868A0434D6805F48035B5F5803F00D174
:100C700020431F4D28602D1D2868A0434D6805F4B2
:100C80000035B5F5003F00D12043194D2D1D2860DA
:100C90002D1D2868A0434D6805F48015B5F5801F0B
:100CA00000D12043124D083528602D1D2868A0432F
:100CB0004D6805F40015B5F5001F00D120430C4D1B
:100CC0000C352860521C0D68D540002D7FF42AAFEA
:100CD00078BD0000001002400004004800080048F1
:100CE000000C0048001000480014004808000140B3
:100CF00000040140024613690B400BB1012000E0E3
:100D0000002070470AB1816100E0816270470000F5
:100D10000148006870470000080000200348006890
:100D20000349096808440149086070470800002029
:100D30001000002010B50024032000F0ABF80020C4
:100D400000F008F808B1012401E000F02FF8204677
:100D500010BD000070B50446002511480068D8B1E8
:100D60000F4800684FF47A71B1FBF0F00D49096843
:100D7000B1FBF0F6304600F02BFF58B9102C07D22B
:100D800000222146501E00F047F80748046004E0A6
:100D9000012502E0012500E00125284670BD000084
:100DA00010000020140000200C00002008B500BF37
:100DB0000E48006E40F001000C4908660846006EBF
:100DC00000F00100009000BF00BF00BF0846806D2A
:100DD00040F0805088650846806D00F0805000909B
:100DE00000BF00BF00F0F6F808BD00000010024090
:100DF0000146084600280DDB00BF00BF00F01F03BE
:100E000001229A4043099B0003F1E023C3F800212B
:100E100000BF00BF00BF70472DE9F05F80460D4660
:100E2000164602F0D3FD074639462A46334601F0FE
:100E30000700C0F1070ABAF1040F02D94FF0040A03
:100E400001E0C0F1070AD14600F1040ABAF1070F28
:100E500002D24FF0000A01E0A0F1030AD4464FF09D
:100E6000010A0AFA09FAAAF1010A0AEA020A0AFAC6
:100E70000CFA4FF0010B0BFA0CFBABF1010B0BEA78
:100E8000030B4AEA0B042146404602F0A7FDBDE8E9
:100E9000F09F000000BF00F00702064B19684FF6F4
:100EA000FF031940044B0B4343EA0221014B196035
:100EB00000BF70470CED00E00000FA0502468ABB57
:100EC0004148006800F4C060B0F5806F2BD13E4807
:100ED0008030006820F480703B4BC3F880001846D7
:100EE000006820F4C06040F4007018603748006863
:100EF00032235843364BB0FBF3F0411C00E0491E4F
:100F00003148406900F48060B0F5806F01D100295C
:100F1000F5D12D48406900F48060B0F5806F51D163
:100F20000320704708E028488030006820F4807073
:100F3000254BC3F8800045E0B2F5007F3AD1224846
:100F4000006800F4C060B0F5806F2AD11E48803080
:100F5000006840F480701C4BC3F88000184600689D
:100F600020F4C06040F40070186018480068322314
:100F70005843174BB0FBF3F0411C00E0491E1248E8
:100F8000406900F48060B0F5806F01D10029F5D18F
:100F90000D48406900F48060B0F5806F12D10320E5
:100FA000BFE709488030006840F48070064BC3F802
:100FB000800007E00448006820F4C06040F48060CE
:100FC000014B18600020ACE70070004014000020C6
:100FD00040420F000348806840F480400149886027
:100FE00070470000007000402DE9F84304460027D8
:100FF000B846206800F40020B0F5002F73D1B94640
:10100000D348806D00F0805078B900BFD048806D23
:1010100040F08050CE4988650846806D00F08050D1
:10102000009000BF00BF4FF00109CA48006840F4BB
:101030008070C8490860FFF76BFE064606E0FFF7C0
:1010400067FE801B022801D9032705E0C14800681C
:1010500000F480700028F2D000BF002F46D1BC48B9
:101060009030006800F44075CDB1206CA84216D0D5
:10107000B7489030006820F44075B548D0F890002B
:1010800040F48030B249C1F890000846D0F8900092
:1010900020F48030C1F890000846C0F8905005F068
:1010A0000100A0B1FFF734FE064608E0FFF730FE6E
:1010B000801B41F28831884201D9032706E0A44809
:1010C0009030006800F002000028EFD000BF5FB948
:1010D0009F489030006820F44070216C08439C4980
:1010E000C1F8900003E00CE0B84600E0B846B9F162
:1010F000010F05D19648806D20F080509449886595
:1011000000BF207800F0010048B1914888300068A5
:1011100020F00300616808438D49C1F888002078F9
:1011200000F00200022809D189488830006820F0C8
:101130000C00A16808438649C1F88800207800F0B7
:101140000400042809D182488830006820F030006B
:10115000E16808437E49C1F88800207800F0080063
:10116000082809D17A488830006820F0C000216939
:1011700008437749C1F88800207800F02000202833
:1011800009D173488830006820F4406061690843E1
:101190006F49C1F88800207800F04000402809D14C
:1011A0006B488830006820F44050A16908436849C2
:1011B000C1F88800207800F08000802809D16448B8
:1011C0008830006820F44040E16908436049C1F874
:1011D0008800208800F48070B0F5807F09D15C48D9
:1011E0008830006820F44030216A08435849C1F82B
:1011F0008800208800F40070B0F5007F09D15448C1
:101200008830006820F44020616A08435049C1F8E2
:101210008800208800F48060B0F5806F13D14C48BE
:101220008830006820F44010A16A0843484988319A
:101230000860A06AB0F5801F05D14548C06840F439
:1012400080104349C860208800F40060B0F5006F4A
:1012500013D13F488830006820F44000E16A084319
:101260003B4988310860E06AB0F5800F05D1384805
:10127000C06840F480103649C860208800F480506F
:10128000B0F5805F13D132488830006820F040709C
:10129000216B08432E4988310860206BB0F1807FB4
:1012A00005D12B48C06840F480102949C8602088C7
:1012B00000F40050B0F5005F13D125488830006875
:1012C00020F04060616B0843214988310860606B01
:1012D000B0F1006F05D11E48C06840F480101C4971
:1012E000C860208800F48040B0F5804F13D11848C2
:1012F0008830006820F04060A16B084314498831B1
:101300000860A06BB0F1006F05D11148C06840F4CF
:1013100080100F49C860208800F40040B0F5004FED
:1013200013D10B488830006820F04050E16B08432F
:10133000074988310860E06BB0F1805F05D104484F
:10134000C06840F480300249C8604046BDE8F88378
:1013500000100240007000402DE9F04104460D46A7
:101360004FF0000814B90120BDE8F0817D48006805
:1013700000F00F00A8420ED27A48006820F00F005B
:101380002843784908600846006800F00F00A8422A
:1013900001D00120E8E7207800F00100002864D0A7
:1013A0006068032823D17048006800F0007008B915
:1013B0000120D9E701F014FB06466C48864237D974
:1013C0006948806800F0F00030B1207800F0020039
:1013D00002282DD1A06858BB6348806820F0F00037
:1013E00040F08000604988604FF0800820E060682D
:1013F000022806D15C48006800F4003040B90120A2
:10140000B2E75948006800F4806008B90120ABE7F2
:1014100000F0DEF806465548864209D952488068F1
:1014200020F0F00040F080004F4988604FF08008C5
:101430004D48806820F00300616808434A4988608D
:10144000FFF766FC074608E0FFF762FCC01B41F2AD
:101450008831884201D9032086E74348806800F03C
:101460000C006168B0EB810FEED1207800F0020033
:10147000022820D1207800F00400042805D13A4841
:10148000806840F4E06038498860207800F0080007
:10149000082807D13448806820F4605040F4E060A8
:1014A000314988603048806820F0F000A168084326
:1014B0002D49886008E0B8F1800F05D12A4880687E
:1014C00020F0F000284988602648006800F00F00EE
:1014D000A84219D92348006820F00F002843214969
:1014E0000860FFF715FC074608E0FFF711FCC01B7A
:1014F00041F28831884201D9032035E71948006854
:1015000000F00F00A842F0D1207800F00400042879
:1015100007D11548806820F4E060E168084312496B
:101520008860207800F00800082808D10E488068FC
:1015300020F46050216940EAC1000B49886000F046
:1015400047F809498968C1F30311094A515C01F060
:101550001F01C8400749086007480068FFF7FAFB09
:1015600002E70000002002400010024000B4C40462
:101570007C450008140000200C0000200148006891
:10158000704700001400002000B5FFF7F7FF054981
:101590008968C1F30221044A515C01F01F01C8406F
:1015A00000BD0000001002408C45000800B5FFF7A8
:1015B000E5FF05498968C1F3C221044A515C01F085
:1015C0001F01C84000BD0000001002408C4500080B
:1015D00070B5224DAD6805F00C05042D01D12048F1
:1015E0003AE01E4DAD6805F00C05082D01D11D48EF
:1015F00032E01A4DAD6805F00C050C2D2BD1174DBE
:10160000ED6805F00304154DED68C5F303156A1C7C
:10161000022C0CD0032C09D1124DB5FBF2F50F4E64
:10162000F668C6F3062605FB06F10AE000BF0C4D7E
:10163000B5FBF2F5094EF668C6F3062605FB06F182
:1016400000BF00BF054DED68C5F341656D1C6B0023
:10165000B1FBF3F000E0002070BD0000001002407C
:101660000024F40000366E012DE9F843044614B955
:101670000120BDE8F883207800F00100002865D043
:10168000FC48806800F00C07FA48C06800F00306C8
:101690000C2F01D1032E01D0082F0AD1F548006884
:1016A00000F40030002851D0606800284ED101209D
:1016B000DFE700BF6068B0F5803F06D1ED48006805
:1016C00040F48030EB4908601AE06068B0F5A02F64
:1016D0000BD1E848006840F48020E64908600846DD
:1016E000006840F4803008600AE0E248006820F4B6
:1016F0008030E04908600846006820F480200860D7
:1017000000BF606888B1FFF703FB054606E0FFF7FE
:10171000FFFA401B642801D90320AAE7D5480068D6
:1017200000F400300028F2D010E0FFF7F1FA05468F
:1017300006E0FFF7EDFA401B642801D9032098E783
:10174000CC48006800F400300028F2D1207800F086
:101750000200022860D1C748806800F00C07C54825
:10176000C06800F003060C2F01D1022E01D0042F17
:1017700018D1C048006800F4806018B1E06808B96A
:10178000012076E7BB48406820F0FE40217C40EA1B
:101790000160B8494860B8480068FFF7DBFA18B341
:1017A000012066E7E06800B3B248006840F480704A
:1017B000B0490860FFF7ACFA054606E0FFF7A8FA63
:1017C000401B022801D9032053E7AA48006800F40F
:1017D00080600028F2D0A748406820F0FE40217CBD
:1017E00040EA0160A349486016E0A248006820F47E
:1017F0008070A0490860FFF78BFA054606E0FFF706
:1018000087FA401B022801D9032032E79948006873
:1018100000F480600028F2D1207800F00800082849
:1018200036D16069D0B193489430006840F001002F
:101830009049C1F89400FFF76BFA054606E0FFF700
:1018400067FA401B022801D9032012E78948943027
:10185000006800F002000028F1D019E085489430BB
:10186000006820F001008349C1F89400FFF750FAA6
:10187000054606E0FFF74CFA401B022801D9032079
:10188000F7E67C489430006800F002000028F1D1AF
:10189000207800F00400042872D14FF00008754849
:1018A000806D012121EA107078B100BF7148806D10
:1018B00040F080506F4988650846806D00F0805088
:1018C000009000BF00BF4FF001086C48006800F4B2
:1018D0008070B0B96948006840F48070674908605A
:1018E000FFF716FA054606E0FFF712FA401B02283A
:1018F00001D90320BDE66148006800F4807000282B
:10190000F2D000BFA068012808D15A489030006882
:1019100040F001005749C1F8900021E0A068052877
:101920000FD154489030006840F004005149C1F88C
:1019300090000846D0F8900040F00100C1F89000F7
:101940000EE04C489030006820F001004949C1F891
:1019500090000846D0F8900020F00400C1F89000F4
:1019600000BFA068A8B1FFF7D3F9054609E0FFF76B
:10197000CFF9401B41F28831884202D9032078E632
:1019800025E03C489030006800F002000028EED0CE
:1019900013E0FFF7BDF9054608E0FFF7B9F9401B72
:1019A00041F28831884201D9032062E63148903003
:1019B000006800F002000028EFD1B8F1010F05D156
:1019C0002C48806D20F080502A49886500BF20781F
:1019D00000F02000202836D1A069D0B125489830E9
:1019E000006840F001002349C1F89800FFF790F922
:1019F000054606E0FFF78CF9401B022801D90320B9
:101A000037E61C489830006800F002000028F1D04A
:101A100019E018489830006820F001001549C1F815
:101A20009800FFF775F9054606E0FFF771F9401BCE
:101A3000022801D903201CE60E489830006800F007
:101A400002000028F1D1E069002860D009488068D0
:101A500000F00C000C287FD0E069022858D105481E
:101A6000006820F0807003490860FFF751F90546CF
:101A70000DE00000001002400C000020007000404B
:101A8000FFF746F9401B022801D90320F1E54D4834
:101A9000006800F000700028F2D1D4E90810401E60
:101AA00041EA0011A06A41EA0021208E0122C2EB26
:101AB000500041EA40513420005DC2EB500041EA41
:101AC00040612C20005D41EAC0603E49C9683E4A41
:101AD000114008433B49C8600846006840F08070E8
:101AE00008600846C06840F08070C860FFF710F9D1
:101AF000054606E0FFF70CF9401B022801D9032038
:101B0000B7E53048006800F000700028F2D056E0D9
:101B10002C48006820F080702A4908600846C06898
:101B200020F00300C8600846C068284908402549DD
:101B3000C860FFF7EDF8054607E00DE0FFF7E8F8AD
:101B4000401B022801D9032093E51E48006800F0DD
:101B500000700028F2D132E0E069012800D188E568
:101B60001848C66806F00301206A814225D106F0B4
:101B7000F001606A401EB1EB001F1ED106F4FE4169
:101B8000A06AB1EB002F18D106F078412C20005D3F
:101B9000B1EBC06F11D106F4C001208E0122C2EB5F
:101BA0005000B1EB405F08D106F0C0613420005D09
:101BB000C2EB5000B1EB406F01D0012059E500208D
:101BC00057E50000001002400C809F01FFFFEEFE71
:101BD00070B504462546681EB0F1807F01D3012010
:101BE0000FE0681E4FF0E02148610F214FF0FF30F9
:101BF00001F0F4FE00204FF0E02188610720086129
:101C0000002070BD014600BF91F88000012801D17D
:101C100002207047012081F8800000BF2420C1F815
:101C20008400086802680868006820F001000B68FA
:101C3000186022F0005200204866086802602020E8
:101C4000C1F8840000BF002081F8800000BF00BF01
:101C5000DFE77047704770B504460D4600BF94F843
:101C60008000012801D1022070BD012084F880008D
:101C700000BF2420C4F8840020680668206800683B
:101C800020F00100216808602068806820F0606012
:101C9000284321688860204601F0AAF82068066081
:101CA0002020C4F8840000BF002084F8800000BF1A
:101CB00000BFD9E770B504460D4600BF94F8800018
:101CC000012801D1022070BD012084F8800000BFEE
:101CD0002420C4F88400206806682068006820F08A
:101CE0000100216808602068806820F06040284377
:101CF00021688860204601F07BF82068066020207B
:101D0000C4F8840000BF002084F8800000BF00BF3A
:101D1000D9E77047704770472DE9F04704462068BF
:101D2000C569206806682068876840F60F0005EAE4
:101D30000009B9F1000F0FD105F0200060B106F0E5
:101D4000200010B907F0805030B1206F10B120464C
:101D5000216F8847BDE8F087B9F1000F7ED0AD480C
:101D6000384018B9AC4830400028F7D005F00100E1
:101D700058B106F4807040B1012021680862D4F89F
:101D80008C0040F00100C4F88C0005F0020058B14E
:101D900007F0010040B1022021680862D4F88C00ED
:101DA00040F00400C4F88C0005F0040058B107F0BE
:101DB000010040B1042021680862D4F88C0040F092
:101DC0000200C4F88C0005F0080070B106F0200095
:101DD00010B99048384040B1082021680862D4F812
:101DE0008C0040F00800C4F88C0005F4006060B17D
:101DF00006F0806048B14FF4006021680862D4F8B2
:101E00008C0040F02000C4F88C00D4F88C0000282E
:101E100044D005F0200050B106F0200010B907F0C2
:101E2000805020B1206F10B12046216F8847D4F830
:101E30008CA02068806800F04000402802D00AF0A2
:101E4000280028B3204601F0C3F82068806800F01D
:101E50004000402818D12068806800E01FE020F092
:101E6000400021688860E06F50B16C48E16F886382
:101E7000E06FFEF70DFD88B1E06F816B88470DE0E4
:101E80002046FFF748FF09E02046FFF744FF05E042
:101E90002046FFF740FF0020C4F88C005AE7E06EB0
:101EA000012879D105F01000002875D006F0100047
:101EB000002871D01020216808622068806800F036
:101EC000400040283DD1E06F006840681FFA80F86C
:101ED000B8F1000F34D0B4F85C00404530DDA4F810
:101EE0005E80E06F0068006800F02000F8B92068AC
:101EF000006820F48070216808602068806820F005
:101F00000100216888602068806820F04000216816
:101F100088602020C4F888000020E06620680068FF
:101F200020F0100021680860E06FFEF776FCB4F83E
:101F30005C00B4F85E20801A81B22046FFF789FE6B
:101F400008E734F85C0F6188401A1FFA80F860884F
:101F50005C3CF8B1B8F1000F1CD02068006820F498
:101F6000907021680860206880682A49C943084049
:101F7000216888602020C4F888000020E06620677F
:101F80002068006820F01000216808604146204663
:101F9000FFF75FFEDEE6FFE705F4801050B107F4BF
:101FA000800038B14FF48010216808622046FFF7A6
:101FB000B1FECFE605F0800058B106F0800010B900
:101FC00007F4000028B1606F10B12046616F8847A8
:101FD000C0E605F0400030B106F0400018B12046E0
:101FE00001F014F8B6E605F4000030B106F08040C8
:101FF00018B12046FFF78DFEACE605F0807030B1D9
:1020000006F0004018B12046FFF724FEA2E600BF0C
:10201000A0E600000100001020010004B72F000816
:1020200010B504460CB9012010BDA06900B100E054
:1020300000BFD4F8840028B9002084F8800020462E
:1020400000F02AF82420C4F884002068006820F0FA
:10205000010021680860204601F0DEF9012800D166
:10206000E2E7A06A10B1204600F0EEFE206840686A
:1020700020F49040216848602068806820F02A00A1
:10208000216888602068006840F0010021680860CD
:10209000204600F055FFC7E710B598B0044614215C
:1020A00013A8FEF7EFF8442102A8FEF7EBF82F493A
:1020B0002068884257D1012002900020039002A896
:1020C000FEF792FF08B1FEF7A5FB00BF2848006E9F
:1020D00040F48040264908660846006E00F48040BF
:1020E000019000BF00BF00BF0846C06C40F0010077
:1020F000C8640846C06C00F00100019000BF00BF3A
:102100004FF4C06013900220149000201590169098
:102110000720179013A94FF09040FEF7FFFC1548D9
:102120001549086018204860002113488160C1608B
:1021300080210161002141618161C1614FF4005141
:102140000162FEF76FFC08B1FEF764FB00BF0A48AE
:10215000E067846200BF002211462520FEF75CFE86
:102160002520FEF745FE18B010BD000000380140E4
:1021700000100240080002407401002070B50446BF
:102180000D461646D4F88800202825D105B10EB991
:10219000012070BD00BF94F88000012801D1022009
:1021A000F7E7012084F8800000BF0020E0660B49BB
:1021B000206888420AD02068406800F4000028B1F6
:1021C0002068006840F08060216808603246294637
:1021D000204601F0E7FADCE70220DAE70080004061
:1021E00010B504460A492068884210D1FEF790FDD8
:1021F0000849086008480088401C074908800748CB
:102200000A461288811801220548FFF7B7FF10BD62
:10221000003801400400002000000020640000207D
:10222000E40000202DE9F84F04460E461746994673
:10223000D4F8840020285ED106B117B90120BDE88A
:10224000F88F00BF94F88000012801D10220F6E742
:10225000012084F8800000BF00205434A0632120B6
:102260002063FEF755FD824627806780543CA068B6
:10227000B0F5805F04D1206910B90025B04602E0B6
:1022800035464FF0000800BF002084F8800000BFF2
:102290001DE05346002280212046CDF8009001F039
:1022A00009FB08B10320CAE745B9B8F80000C0F33C
:1022B00008002168886208F1020803E02878216894
:1022C00088626D1CB4F85600401EA4F85600B4F89D
:1022D00056000028DDD15346002240212046CDF88B
:1022E000009001F0E7FA08B10320A8E72020C4F825
:1022F00084000020A3E70220A1E7704700BFFEE7AB
:1023000000B585B014216846FDF7BCFF4FF6FF709D
:102310000090002001900320039000200290694665
:102320000248FEF7FBFB05B000BD000000080048B6
:1023300000B585B014216846FDF7A4FF4FF6FF7085
:102340000090012001900320039000200290694634
:102350000248FEF7E3FB05B000BD0000000800489E
:1023600030B5054600240021084600F047F900F08A
:1023700095F900BF03E0284600F054F9641CB4F559
:10238000963FF8D330BD000000B587B0142102A8F5
:10239000FDF778FF00BF2A48C06C40F004002849D0
:1023A000C8640846C06C00F00400019000BF00BF84
:1023B00000BF0846C06C40F00100C8640846C06C0D
:1023C00000F00100019000BF00BF00BF0846C06CD4
:1023D00040F00200C8640846C06C00F002000190A2
:1023E00000BF00BF4FF4487002900120039000200E
:1023F0000590049002A91348FEF790FB4FF48070FB
:1024000002900120039000200590049002A94FF053
:102410009040FEF783FBFFF78BFF4FF09040806901
:1024200040F480704FF09041886106481830006891
:1024300040F4087003491831086007B000BD00007F
:10244000001002400004004870B505460E461446D0
:10245000A4F12000C4B204EB4400044901EB0012D3
:102460003146284600F01AF870BD00009445000877
:10247000F0B507460C46002540F23F1609E02278E9
:1024800031463846FFF7E0FFA6F1100086B2641C23
:102490006D1C207808B1142DF1D3F0BD2DE9F04367
:1024A00006468946174600240025A046B046494600
:1024B000404600F0A3F800BF1EE000F0EFF8002552
:1024C0000FE037F814000121A940084020B90C485A
:1024D000008800F0A7F803E00A48008800F0A2F89E
:1024E0006D1C102DEDD308F1010000F0FF084946E6
:1024F000404600F083F8641C182CDED3BDE8F0835E
:102500005C0000205A00002010B5FFF73DFF0020BE
:1025100000F016F8094908800846008848F2302182
:10252000884202D100F090FA01E000F01DFB00208B
:1025300000F006F80149088010BD00005E00002090
:1025400070B504462748006840F4007025490860CB
:102550000846006840F4807008602248103800681F
:1025600040F020001F49103908601F4804601D48D2
:10257000006840F020001B49086000BF00BF00BF9A
:1025800018481038006840F02000164910390860DB
:102590000846006840F480700860FFF7B1FE4FF015
:1025A0009040806A40F480704FF09041886200BF94
:1025B00000BF00BF0C48001F006885B24FF090407C
:1025C000806940F480704FF090418861FFF7B0FE61
:1025D00004481038006840F400700249103908605F
:1025E000284670BD280400481408004801B5BDF80D
:1025F00000000149088008BD5C00002030B5044699
:102600000D462146202000F085F82946212000F0C3
:1026100081F830BD01B5BDF800000149088008BD52
:102620005A0000201B49096841F40071194A1160E1
:1026300018491039096841F48071164A103A11603E
:102640001146096841F020011160134908601149E1
:10265000096841F020010F4A116000BF00BF00BFB0
:102660000C491039096841F020010A4A103A1160FA
:102670001146096841F48071116000BF00BF00BFBE
:1026800004491039096841F40071024A103A116096
:102690007047000028040048140800481B480068E0
:1026A00040F40070194908600846006840F48070E2
:1026B000086016481038006840F0200013491039AF
:1026C00008602220124908601048006840F020008D
:1026D0000E49086000BF00BF00BF0C4810380068FA
:1026E00040F020000949103908600846006840F4AD
:1026F0008070086000BF00BF00BF04481038006849
:1027000040F40070014910390860704728040048FF
:1027100014080048214A126842F400721F4B1A60E4
:102720001A46126842F480721A601C4A103A126803
:1027300042F02002194B103B1A60194A1060174AE8
:10274000126842F02002154B1A6000BF00BF00BFA4
:10275000124A103A126842F02002104B103B1A60E5
:102760001A46126842F480721A600D4A11600B4AD0
:10277000126842F02002094B1A6000BF00BF00BF80
:10278000064A103A126842F02002044B103B1A60CD
:102790001A46126842F480721A6070472804004892
:1027A0001408004808B500BF1148806C40F00400D0
:1027B0000F4988640846806C00F00400009000BF58
:1027C00000BF00BF0846806C40F0010088640846E6
:1027D000806C00F00100009000BF00BF0022114695
:1027E0000B20FEF719FB0B20FEF702FB08BD0000D3
:1027F0000010024000B587B0142102A8FDF742FD89
:1028000000BF5248C06C40F004005049C8640846FC
:10281000C06C00F00400019000BF00BF00BF08467C
:10282000C06C40F02000C8640846C06C00F0200076
:10283000019000BF00BF00BF0846C06C40F001001F
:10284000C8640846C06C00F00100019000BF00BFE2
:1028500000BF0846C06C40F00200C8640846C06C67
:1028600000F00200019000BF00BF00BF0846C06C2E
:1028700040F00800C8640846C06C00F008000190F1
:1028800000BF00BF01224FF47F413148FEF73AFA02
:102890000022FF212E48FEF735FA00224FF4807106
:1028A0004FF09040FEF72EFA012204212948FEF74E
:1028B00029FA00224FF448712748FEF723FA4FF611
:1028C000FF7002900120039000200490059002A95F
:1028D0001F48FEF723F901200290002003900120F9
:1028E000049002A94FF09040FEF718F907200290DB
:1028F000002003900120049002A91748FEF70EF96A
:102900004FF4807002900120039000200490059005
:1029100002A94FF09040FEF701F904200290012037
:10292000039000200490059002A90A48FEF7F6F8EB
:102930004FF448700290012003900020049005900D
:1029400002A90548FEF7EAF807B000BD00100240F2
:1029500000080048000C00480004004810B51A4860
:102960001A4908604FF416504860002117488160EA
:10297000C16001610C21416100218161C16101627D
:1029800041620020114988620846FFF749FB08B1FF
:10299000FDF740FF00210D48FFF78CF908B1FDF766
:1029A00039FF00210948FFF756F908B1FDF732FF5A
:1029B0000648FFF727F908B1FDF72CFF012204496B
:1029C0000248FFF7DBFB10BD00380140E4000020A7
:1029D0006400002000BFFEE700BFFEE77047000074
:1029E00070B5164DED6805F00304144DED68C5F3A0
:1029F00003156B1C022C0CD0032C09D1104DB5FB18
:102A0000F3F50E4EF668C6F3062605FB06F10AE05E
:102A100000BF0C4DB5FBF3F5084EF668C6F306266D
:102A200005FB06F100BF00BF044DED68C5F341652D
:102A30006D1C6A00B1FBF2F070BD00000010024096
:102A400000366E010024F40000B501210020FFF7DC
:102A500061FE4FF47A70FDF7CEFE00210120FFF7F2
:102A600059FE41F290711020FFF754FE4FF41C51B3
:102A70006020FFF74FFE01216120FFF74BFE02218E
:102A80004620FFF747FE48F210011320FFF742FEF1
:102A900048F2FE011220FFF73DFE4FF4A061022034
:102AA000FFF738FE41F230010320FFF733FE40F21A
:102AB00003313020FFF72EFE40F203313120FFF7C3
:102AC00029FE40F203313220FFF724FE4FF440711B
:102AD0003320FFF71FFE03213420FFF71BFE40F2D7
:102AE00003313520FFF716FE14213620FFF712FEC2
:102AF00040F203313720FFF70DFE40F2033138205A
:102B0000FFF708FE40F203313920FFF703FE4FF4D0
:102B100040713A20FFF7FEFD03213B20FFF7FAFD4D
:102B200040F203313C20FFF7F5FD4FF4A0513D206A
:102B3000FFF7F0FD4FF400719220FFF7EBFD40F23C
:102B400003319320FFF7E6FD40F60D019020FFF7DB
:102B5000E1FD41F218010320FFF7DCFD40F27311A3
:102B60000720FFF7D7FD00BD10B543F20801E320B1
:102B7000FFF7D0FD1221E720FFF7CCFD41F2312114
:102B8000EF20FFF7C7FD00210120FFF7C3FD4FF441
:102B9000E0610220FFF7BEFD41F230010320FFF7A4
:102BA000B9FD00210420FFF7B5FD40F20721082000
:102BB000FFF7B0FD00210920FFF7ACFD00210A203E
:102BC000FFF7A8FD00210C20FFF7A4FD00210D2038
:102BD000FFF7A0FD00210F20FFF79CFD0021102032
:102BE000FFF798FD07211120FFF794FD0021122027
:102BF000FFF790FD00211320FFF78CFDC820FDF7A3
:102C000079FF41F290611020FFF784FD40F2272107
:102C10001120FFF77FFD3220FDF76CFF1D211220F0
:102C2000FFF778FD3220FDF765FF4FF400611320B8
:102C3000FFF770FD14212920FFF76CFD0B212B20DD
:102C4000FFF768FD3220FDF755FF00212020FFF738
:102C500061FD00212120FFF75DFD07213020FFF7F6
:102C600059FD40F207713120FFF754FD0621322053
:102C7000FFF750FD40F204713520FFF74BFD41F6A0
:102C800004713620FFF746FD04213720FFF742FD8F
:102C900000213820FFF73EFD40F206713920FFF792
:102CA00039FD40F201713C20FFF734FD0F213D203A
:102CB000FFF730FD00215020FFF72CFDEF215120C0
:102CC000FFF728FD00215220FFF724FD40F23F11BD
:102CD0005320FFF71FFD4FF41C516020FFF71AFD32
:102CE00001216120FFF716FD00216A20FFF712FD88
:102CF00000218020FFF70EFD00218120FFF70AFD53
:102D000000218220FFF706FD00218320FFF702FD4E
:102D100000218420FFF7FEFC00218520FFF7FAFC4C
:102D200010219020FFF7F6FC00219220FFF7F2FC23
:102D300003219320FFF7EEFC4FF488719520FFF7F5
:102D4000E9FC00219720FFF7E5FC00219820FFF720
:102D5000E1FC41F218010320FFF7DCFC40F27311A3
:102D60000720FFF7D7FC10BD704710B5FDF7D6FF61
:102D700010BD00B593B0382105A8FDF783FA1421E2
:102D80006846FDF77FFA4FF40070FEF797F80120D0
:102D900005900004069002200C9003210D910E91E5
:102DA00014210F91022110911191129105A8FEF7A3
:102DB0005BFC08B1FDF72EFD0F2000900320019071
:102DC000002002900390049002216846FEF7C4FAA6
:102DD00008B1FDF71FFD13B000BD000003480068F7
:102DE00040F47000014908607047000088ED00E081
:102DF00070B5456E2DB90125A0F86A50A0F868504D
:102E00001CE0082308240568AD68C5F34261056825
:102E1000AD686A0F0A4DAD5C15FB04F5094EB65C52
:102E200095FBF6F5A0F86A50054D6D5C15FB03F5B2
:102E3000044E765C95FBF6F5A0F8685070BD000076
:102E40006C4500087445000890F8281001F0010155
:102E500039B10168496821F40031C26A114302683E
:102E6000516090F8281001F00201022907D1016891
:102E7000496821F48031026B11430268516090F877
:102E8000281001F00401042907D10168496821F4E0
:102E90008021426B11430268516090F8281001F0C4
:102EA0000801082907D10168496821F40041826BB3
:102EB00011430268516090F8281001F010011029A8
:102EC00007D10168896821F48051C26B11430268FF
:102ED000916090F8281001F02001202907D10168A5
:102EE000896821F40051026C11430268916090F8E6
:102EF000281001F04001402913D10168496821F4EC
:102F00008011426C114302685160416CB1F5801F21
:102F100007D10168496821F4C001826C114302683D
:102F2000516090F8281001F08001802907D10168D4
:102F3000496821F40021C26C114302685160704756
:102F400038B504460020C4F88C00FDF7E1FE0546C4
:102F50002068006800F0080008280CD16FF07E405F
:102F60002B4600224FF400110090204600F0A2FCF6
:102F700008B1032038BD2068006800F00400042870
:102F80000CD16FF07E402B4600224FF48001009060
:102F9000204600F08FFC08B10320EBE72020C4F8A6
:102FA0008400C4F888000020E06600BF84F8800038
:102FB00000BF00BFDEE770B50546AC6A0020A4F88C
:102FC0005E00A4F856002046FEF7A5FE70BD000086
:102FD0000168096821F490710268116001688968CC
:102FE000094A114002689160C16E012905D101684A
:102FF000096821F01001026811602021C0F88810D2
:103000000021C16601677047FEFFFFEF10B504465F
:103010002068006820F04000216808602020C4F883
:103020008400002060672046FFF767F910BD2DE996
:10303000F0410446B4F86070D4F88800222837D1F3
:103040002068406A86B2A56D06EA07002880A06D58
:10305000801CA065B4F85E00401EA4F85E00B4F8C1
:103060005E0020BB2068006820F490702168086032
:103070002068806820F00100216888602020C4F862
:10308000880000202067E06E01280BD120680068CE
:1030900020F0100021680860B4F85C102046FEF7AC
:1030A000D8FD02E02046FFF79BF80020E06605E02F
:1030B0002068806940F0080021688861BDE8F081DF
:1030C0002DE9F84F0446B4F860B02068C56920685F
:1030D000006800902068D0F808A0D4F88800222862
:1030E00071D1B4F8689074E02068406A1FFA80F8E3
:1030F000A76D08EA0B003880A06D801CA065B4F8AD
:103100005E00401EA4F85E002068C56905F0070057
:10311000B0B305F0010060B1009800F4807040B1D8
:10312000012021680862D4F88C0040F00100C4F846
:103130008C0005F0020058B10AF0010040B10220F5
:1031400021680862D4F88C0040F00400C4F88C00B8
:1031500005F0040058B10AF0010040B104202168D4
:103160000862D4F88C0040F00200C4F88C00D4F857
:103170008C0028B12046FEF7CEFD0020C4F88C005C
:10318000B4F85E0028BB2068006820F480702168D5
:1031900008602068806821490840216888602020F4
:1031A000C4F8880000202067E06E01280CD1206858
:1031B000006820F0100021680860B4F85C10204618
:1031C000FEF747FD03E021E02046FFF709F8002065
:1031D000E066B9F1000F03D005F02000002883D18C
:1031E000B4F85E60C6B1B4F86800B04214DD20687F
:1031F000806820F080502168886009482067206836
:10320000006840F020002168086005E020688069BF
:1032100040F0080021688861BDE8F88FFEFFFFEFED
:103220002F30000870B50446B4F86060D4F8880008
:10323000222837D12068406A85B2F0B22840A16DBB
:103240000870A06D401CA065B4F85E00401EA4F894
:103250005E00B4F85E0020BB2068006820F4907027
:10326000216808602068806820F00100216888607B
:103270002020C4F8880000202067E06E01280BD1D0
:103280002068006820F0100021680860B4F85C1025
:103290002046FEF7DEFC02E02046FEF7A1FF0020FC
:1032A000E06605E02068806940F0080021688861D8
:1032B00070BD00002DE9F05F0446B4F860A02068FE
:1032C000C5692068D0F800B02068D0F80890D4F81C
:1032D0008800222870D1B4F8688073E02068406AC2
:1032E00087B20AF0FF003840A16D0870A06D401C45
:1032F000A065B4F85E00401EA4F85E002068C569B1
:1033000005F00700A8B305F0010058B10BF4807078
:1033100040B1012021680862D4F88C0040F001001F
:10332000C4F88C0005F0020058B109F0010040B16A
:10333000022021680862D4F88C0040F00400C4F830
:103340008C0005F0040058B109F0010040B10420E0
:1033500021680862D4F88C0040F00200C4F88C00A8
:10336000D4F88C0028B12046FEF7D5FC0020C4F824
:103370008C00B4F85E0028BB2068006820F48070E0
:1033800021680860206880682149084021688860B9
:103390002020C4F8880000202067E06E01280CD1AE
:1033A0002068006820F0100021680860B4F85C1004
:1033B0002046FEF74EFC03E021E02046FEF710FF1A
:1033C0000020E066B8F1000F03D005F020000028CF
:1033D00084D1B4F85E60C6B1B4F86800B04214DDC0
:1033E0002068806820F08050216888600948206744
:1033F0002068006840F020002168086005E020682F
:10340000806940F0080021688861BDE8F09F0000F5
:10341000FEFFFFEF253200082DE9FE4F0446002095
:103420000290D6492068884200D100E000BF21699F
:10343000A068084361690843E16940EA010820681F
:103440000068CF49084040EA080021680860206809
:10345000406820F44050E168084321684860D4F88F
:103460001880C6492068884202D0206A40EA0808CD
:1034700020688068C349084040EA080021688860E5
:103480002068C06A20F00F00616A08432168C862A2
:1034900000BFBD492068884216D1BC48006800F0D2
:1034A000030030B1012808D0022804D0032808D135
:1034B00005E0012507E0022505E0042503E00825D5
:1034C00001E0102500BF6FE0B1492068884216D1A5
:1034D000AE48006800F00C0030B1042808D008287D
:1034E00004D00C2808D105E0002507E0022505E0FE
:1034F000042503E0082501E0102500BF54E0A5499C
:103500002068884216D1A148006800F0300030B130
:10351000102808D0202804D0302808D105E0002544
:1035200007E0022505E0042503E0082501E0102559
:1035300000BF39E098492068884216D19348006856
:1035400000F0C00030B1402808D0802804D0C02846
:1035500008D105E0002507E0022505E0042503E089
:10356000082501E0102500BF1EE08449206888423C
:1035700019D18648006800F4406048B1B0F5806F0A
:103580000AD0B0F5006F05D0B0F5406F08D105E066
:10359000002507E0022505E0042503E0082501E0F9
:1035A000102500BF00E0102500BF74492068884244
:1035B0005DD135B1022D08D0042D08D0082D0DD1D4
:1035C00009E0FDF7E1FF06460CE0744E0AE0FDF766
:1035D000FFFF064606E04FF4004603E00026012008
:1035E000029000BF00BF002E10D06D49606A31F814
:1035F0001000B6FBF0F9606800EB4000484503D8C6
:1036000060680003484502D201200290AAE06449A4
:10361000606A31F810C06246002330461946FCF754
:10362000F9FD4FF4807C00220B46A0FB0C1B03FB32
:103630000CB300FB0233606840088C461CEB0000B2
:1036400043EB0201CDE90001D4F804C06246002337
:10365000FCF7E0FD0746B7F5407F05D3B7F5801FBF
:1036600002D22068C7607DE0012002907AE0E06924
:10367000B0F5004F40D1092D17D2DFE805F005095C
:103680000D160F1616161300FDF77EFF064610E006
:10369000FDF78CFF06460CE0404E0AE0FDF798FF70
:1036A000064606E04FF4004603E0002601200290A3
:1036B00000BF00BFFEB13A49606A31F81000B6FBA6
:1036C000F0F04000616800EB5100B0FBF1F087B210
:1036D000102F0ED3B7F5803F0BD24FF6F07007EAEC
:1036E000000AC7F342004AEA000A2068C0F80CA0AA
:1036F00038E00120029035E0092D17D2DFE805F00F
:1037000005090D160F1616161300FDF73DFF0646A8
:1037100010E0FDF74BFF06460CE0204E0AE0FDF7F7
:1037200057FF064606E04FF4004603E0002601205E
:10373000029000BF00BFAEB11949606A31F81000B5
:10374000B6FBF0F0616800EB5100B0FBF1F087B21E
:10375000102F05D3B7F5803F02D22068C76001E083
:10376000012002900120A4F86A00A4F8680000205B
:10377000206760670298BDE8FE8F0000008000406F
:10378000F369FFCFFFF4FF110038014088100240B9
:103790000044004000480040004C00400024F40079
:1037A0005445000810B503469965A3F85C20A3F8BA
:1037B0005E200020186700BF9868B0F5805F0AD1CE
:1037C000186920B940F2FF10A3F8600020E0FF2044
:1037D000A3F860001CE0986848B9186918B9FF2080
:1037E000A3F8600014E07F20A3F8600010E0986860
:1037F000B0F1805F09D1186918B97F20A3F8600083
:1038000006E03F20A3F8600002E00020A3F860007B
:1038100000BF0020C3F88C002220C3F8880018687D
:10382000806840F001001C68A060586EB0F1005F35
:1038300020D1B3F8680090421CDC9868B0F5805F36
:1038400004D1186910B91748186701E016481867BD
:1038500000BF002083F8800000BF1868006840F4B3
:1038600080701C6820601868806840F080501C6878
:10387000A06015E09868B0F5805F04D1186910B9B0
:103880000A48186701E00A48186700BF002083F85B
:10389000800000BF1868006840F490701C682060C9
:1038A000002010BDC1300008B53200082F300008DC
:1038B000253200082DE9F04104460D46174698468A
:1038C000069E4AE0701C002847D0FDF721FAA0EBC5
:1038D0000800B04200D8C6B92068006820F4D07053
:1038E000216808602068806820F0010021688860F5
:1038F0002020C4F88400C4F8880000BF002084F8A9
:10390000800000BF0320BDE8F0812068006800F05F
:10391000040010B32068C069C0F3C020E8B14FF4C0
:103920000060216808622068006820F4D070216877
:1039300008602068806820F00100216888602020ED
:10394000C4F88400C4F88800C4F88C0000BF0020CC
:1039500084F8800000BF0320D5E72068C0692840B4
:10396000A84201D1012000E00020B842AAD00020E6
:10397000C9E7000010B50248FEF7CEF910BD0000FF
:10398000E400002000BFFEE70FB4054B10B503A90B
:10399000044A029800F008F910BC5DF814FB00001E
:1039A000B94200086000002037B514460846064BAF
:1039B0006A46214600F0F8F804466946002000F007
:1039C00076FC20463EBD0000AF4200080248006879
:1039D000C0F30220704700000CED00E010B5002895
:1039E00004DB0A07130E054A135406E00A07140EF7
:1039F000034A00F00F031B1FD45410BD00E400E085
:103A000018ED00E002E008C8121F08C1002AFAD130
:103A100070477047002001E001C1121F002AFBD14E
:103A2000704700002DE9FF5F82B00021DDE904301E
:103A3000020DDDF840B0034318D044F61050A2F256
:103A4000FF3242431514119801281FD0A5EB0B003B
:103A5000401C5FEA000A4FF000064E4FDFF8389135
:103A6000B046504615D5CAF1000413E01198012460
:103A70004AA3012801D16FEA0B010298119AC0E90B
:103A80000031C0E9024206B0BDE8F09FCBF1000072
:103A9000DFE704460021404A491842EB0450CDE9D3
:103AA000001012E0E00707D032463B464046494648
:103AB000FCF7CFFC8046894632463B461046194605
:103AC000FCF7C7FC06460F466410002CEAD1DDE97E
:103AD0000401DDE90023BAF1000F06DAFCF7B9FCB6
:103AE00042464B46FCF7B5FC05E0FCF724FD424698
:103AF0004B46FCF720FD04460E460022284BFCF7FF
:103B0000A1FD03D84FF0FF30014607E00022254B0E
:103B100020463146FCF7F6FBFCF77CFD102409E05B
:103B2000002C0ADB0A220023FCF774FB039B3032D3
:103B30001A55641E50EA0102F2D1641C039AC4F1C2
:103B400011031444119A012A03D0012208430DD114
:103B50000AE0084304D000204FF0110B119072E7E7
:103B6000A3EB0B056D1E0DE05B4504DD4FF000027D
:103B700005F1010504E003DA4FF00002A5F10105AB
:103B8000002AECD002981199C0E90231C0E9004541
:103B900079E70000000014400000F03F3000000012
:103BA0000000F0430000E03F2DE9FF4F95B09A463A
:103BB000884606460025EEE1252877D100242746D1
:103BC000F94A0121039400E0044316F8013F203B29
:103BD00001FA03F01042F7D130782A2811D06FF0A3
:103BE0002F033078A0F13002092A16D8039A44F046
:103BF000020402EB820203EB42021044761C0390A3
:103C0000EFE758F8042B0392002A03DA504244F4F9
:103C10000054039044F00204761C30782E2816D10C
:103C200016F8010F44F004042A280DD06FF02F027B
:103C30003078A0F13003092B09D807EB870302EB9A
:103C40004303C718761CF3E758F8047B761C3078DA
:103C50006C280FD006DC4C2817D068280DD06A28B5
:103C600014D104E0742810D07A280FD10DE044F468
:103C700000140AE044F4801401E044F44014727823
:103C8000824202D104F58014761C761C30786628B6
:103C90000BD013DC582877D009DC002875D04528D4
:103CA000F6D04628F4D047281AD193E118E06328CB
:103CB00035D0642879D0652812D18BE1702873D073
:103CC00008DC6728F1D069286FD06E280DD06F28E6
:103CD00006D1ACE073282CD0752874D0782853D046
:103CE0005246179990476D1C54E1C4F302500228C4
:103CF00009D003280DD0D8F8001004280DD00D608D
:103D000008F1040846E1D8F80010EA17C1E90052AA
:103D1000F6E7D8F800100D80F2E70D70F0E718F81C
:103D2000041B8DF8001000208DF80100EB460120E7
:103D300003E058F804BB4FF0FF3061074FF000017B
:103D400002D40DE009F101018946B9420FDA81453B
:103D5000F8DB1BF809100029F4D108E009F1010192
:103D600089468142FADB1BF809100029F6D1039835
:103D70005346A0EB090721463846179A00F080FA0F
:103D8000284400EB090507E044E008E10DE01BF8DA
:103D9000010B524617999047B9F10109F7D25346E2
:103DA00021463846179AF2E039E00A21C4F302525C
:103DB0004FF0000B0091022A06D058F8040BC117EF
:103DC000032A09D00AE023E008F1070020F00702E7
:103DD000F2E80201904605E000B2C117042A01D1C1
:103DE00040B2C117002906DA0A460021404261EBC1
:103DF00002012D2202E0220504D52B228DF8042099
:103E0000012203E0E20701D02022F7E7914657E0C4
:103E10000A2100E010214FF0000B00910BE010216F
:103E20004FF0000B44F004040827009103E0082041
:103E30004FF0000B0090C4F30252022A05D058F84C
:103E4000040B0021032A08D008E008F1070020F045
:103E50000702F2E80201904603E080B2042A00D192
:103E6000C0B24FF0000922072AD53278702A07D055
:103E7000DDF800C08CF0100C5CEA0B0C05D00EE0F5
:103E800040228DF80420012208E050EA010306D008
:103E900030238DF804308DF8052002229146009BD6
:103EA00083F0080353EA0B030AD150EA010201D15F
:103EB000620705D530228DF804204FF001097F1EDE
:103EC0003278582A04D039A20C920CAA02920BE044
:103ED0003BA2F9E75B46009AFCF79CF90C9B9B5CC4
:103EE000029A521E0292137050EA0102F2D1029815
:103EF00004A9081A00F1200B600702D524F48034CD
:103F000000E001275F4502DDA7EB0B0000E0002089
:103F100000EB0B01009003984944401A0390E00322
:103F200006D453462146179A039800F0A9F9054490
:103F3000002706E001A85246C05D179990476D1C06
:103F40007F1C4F45F6DBE0030CD553462146179AFC
:103F5000039800F095F9054404E030205246179983
:103F600090476D1C0099481E00900029F5DC08E080
:103F70000298029952460078491C0291179990477D
:103F80006D1CBBF10001ABF1010BF1DC5BE100F05A
:103F900065F90544761C307800287FF40DAE19B021
:103FA0002846BDE8F08F0000092801003031323387
:103FB0003435363738396162636465660000000065
:103FC000303132333435363738394142434445464F
:103FD00000000000600700D4062708F1070020F069
:103FE0000700F0E80223804603F0004C5FEA0C0073
:103FF00001D097A009E0200501D596A005E0E007D3
:1040000001D095A001E0AFF24C001390307823F07E
:10401000004365280CD006DC452809D046281DD071
:1040200047287FD13BE0662818D067287AD136E050
:104030000021112F01DB112000E0781CCDE90001E7
:1040400004A90CA8FFF7EEFCDDE90D010C9A4FF076
:10405000000B07F10109109200914EE04FF0004073
:104060000097CDE9011004A90CA8FFF7DBFCDDE9FE
:104070000D020C9B0F994FF0000B9146109300928C
:1040800011B9791C00EB0109B7EB090003D4C0F1A9
:10409000FF3B07F10109A9EB0700019042E0012F66
:1040A00000DA01270021112F01DD112000E0384640
:1040B000CDE9000104A90CA8FFF7B4FCDDE90D016E
:1040C0000C9A00914FF0000BB946109221070FD4C3
:1040D000009A4A4503DA914601E0A9F10109B9F1D4
:1040E000010F05DD109AA9F10101515C3029F4D0CE
:1040F000B84202DA10F1040F03DA0121CDE9011010
:1041000010E0002803DC8344A9EB000102E0411C1D
:10411000494500DD8946A0EB0B00401C01904FF0A3
:1041200000400290200705D40198484502DB4FF07B
:10413000FF30019000208DF84B0002980DF14B07E5
:10414000B0F1004F25D002200C902B200D9002984A
:1041500000280CDA404202902D200D9007E00A2141
:104160000298FCF79AF83031029007F8011D0C997B
:10417000481E0C900029F2DC02980028EFD1791E2D
:104180000D980870307800F0200040F0450007F8E6
:10419000020D11A8C01BC01D02901398007800B139
:1041A000012000EB0901019801EBE0710298014444
:1041B0000398401A401E0390E00306D4534621465C
:1041C000179A039800F05CF805441398007818B12A
:1041D0005246179990476D1CE00323D5534621465C
:1041E000179A039800F04CF805441BE0BBF1000F50
:1041F00007DB0098584504DD1098179910F80B005C
:1042000001E0179930205246904701980BF1010BBD
:10421000401E05F10105019004D12E205246179948
:1042200090476D1CB9F10001A9F10109DEDC05E040
:1042300017F8010B5246179990476D1C0299481EBA
:1042400002900029F4DC53462146179A03989EE613
:104250002D0000002B000000200000002DE9F0419F
:10426000044600251E461746880404D405E0394656
:104270002020B0476D1C641EF9D52846BDE8F081AA
:104280002DE9F041044600251E469046C80301D59D
:10429000302700E02027880404D505E04146384651
:1042A000B0476D1C641EF9D52846BDE8F0810A6848
:1042B000531C0B601070704713B50C460A23012283
:1042C00069460248FDF7AEFF00981CBDE4000020DF
:1042D00010B500F031F813490870134800780978D8
:1042E0004840104909780840104908700E48007885
:1042F0000C49097848400B49097888430C490870F3
:1043000008480078084908700848007848B109480A
:1043100006490978405C80F001000649034A12789A
:10432000885410BD55000020560000205700002082
:10433000580000204C00002010B5002401210D4839
:10434000FCF7D8FC00B9012402210A48FCF7D2FC92
:1043500000B9022404210748FCF7CCFC00B903246F
:1043600001214FF09040FCF7C5FC00B90424204621
:1043700010BD0000000400480FB410B588B004461A
:104380000CA8019002A8019A0B99FFF70DFB0020E1
:10439000019002A92046FEF76BF808B010BC5DF84A
:1043A00014FB000010B505A10020FFF7E5FF074A48
:1043B00007A11820FFF7E0FF10BD0000544553543B
:1043C000205541525420415050000000640000200C
:1043D0005541525420444154413A20257300000075
:1043E00010B502460020002107E0535CC1F107042C
:1043F000A3400343D8B24B1CD9B20829F5DB1049BE
:10440000097888421BD00F490968C9B20D4B196061
:10441000194609686FEA002319430A4B19600A49D3
:10442000096841F00401084B196007491031096817
:1044300041F00401044B103319600149087010BDAC
:104440005400002014080048180C004800B5024829
:10445000FFF7C6FF00BD00004C000020FCF76AFC1F
:10446000FEF787FCFEF7C6F9FEF79CF9FEF776FA31
:10447000FEF74AF80020FDF773FF0020FEF7B6F8BC
:104480004FF6FF70FEF7C6F800F004F801E000F008
:1044900007F8FCE704200149087070471800002065
:1044A00070B500241EE0FCF733FC054604EB440025
:1044B0000F4901EB8000406804EB44010C4A02EB19
:1044C000810189680844A8420AD804EB44001146D7
:1044D00001EB8000856004EB440152F82100804725
:1044E000601CC4B2034800788442DCDB70BD00006D
:1044F0001C0000201800002010B50E48008800B9EC
:1045000010BDFCF705FC0C490968401A64280ED957
:104510000A490BA0FFF738FA064801880748FBF75D
:10452000B1FE00200349088004480949886500BF9E
:10453000E6E70000000000200400002064000020E6
:104540007561727420646174613A25730A00000019
:10455000E4000020010002000400060008000A0038
:104560000C00100020004000800000010101010348
:104570000701000008040204080101010000000016
:104580000000000001020304060708090000000003
:104590000102030400000000000000000000000011
:1045A000000000000000000000000000000000000B
:1045B00000000000000000000000000000000000FB
:1045C0000000000000008001800180018001800166
:1045D00080018001800180018001800180018001D3
:1045E00000000000800180010000000000000000C9
:1045F0000000000000000000CC00CC00CC00CC008B
:10460000CC00CC0000000000000000000000000012
:10461000000000000000000000000000000000009A
:10462000000000000000000000000000000000008A
:10463000600C600C600C30063006FE1FFE1F30065A
:1046400038071803FE1FFE1F180318038C018C0186
:104650008C01000000008000E003F80F9C0E8C1C11
:104660008C188C009800F801E007800E801C8C18D4
:104670008C189C18B80CF00FE0038000800000003C
:10468000000000000000000000000E181B0C110CC0
:1046900011061106110311039B018E01C038C06C75
:1046A00060446044304430441844186C0C380000B6
:1046B000000000000000E001F003380718061806AB
:1046C0003003F001F000F8009C310E33061E061C8A
:1046D000061C063FFC73F0210000000000000000F3
:1046E00000000000000000000C000C000C000C009A
:1046F0000C000C00000000000000000000000000A2
:1047000000000000000000000000000000000000A9
:10471000000000000000000200038001C000C00093
:1047200060006000300030003000300030003000A9
:104730003000300060006000C000C0008001000355
:1047400000020000000020006000C0008001800125
:10475000000300030006000600060006000600062F
:10476000000600060003000380018001C000600015
:104770002000000000000000000000000000000019
:10478000C000C000D806F807E00130033807000079
:104790000000000000000000000000000000000019
:1047A0000000000000000000000000000000000009
:1047B00080018001800180018001FC3FFC3F80017D
:1047C00080018001800180010000000000000000E5
:1047D00000000000000000000000000000000000D9
:1047E00000000000000000000000000000000000C9
:1047F0000000000000008001800100010001800035
:1048000000000000000000000000000000000000A8
:10481000000000000000000000000000E007E007CA
:104820000000000000000000000000000000000088
:104830000000000000000000000000000000000078
:104840000000000000000000000000000000000068
:10485000000000000000C000C000000000000000D8
:10486000000000000000000C000C0006000600061E
:104870000003000300038003800180018001C00069
:10488000C000C000600060000000000000000000E8
:10489000000000000000E003F007380E180C0C18B0
:1048A0000C180C180C180C180C180C180C180C18E8
:1048B000180C380EF007E0030000000000000000B4
:1048C00000000000000000018001C001F00198011B
:1048D00088018001800180018001800180018001C8
:1048E00080018001800180010000000000000000C4
:1048F000000000000000E003F80F180C0C180C1862
:1049000000180018000C000600038001C0006000C1
:1049100030001800FC1FFC1F000000000000000019
:10492000000000000000E001F807180E0C0C0C0C51
:10493000000C0006C003C007000C001800180C187B
:104940000C18180CF807E00300000000000000003D
:10495000000000000000000C000E000F000F800D92
:10496000C00C600C600C300C180C0C0CFC3FFC3FB5
:10497000000C000C000C000C000000000000000007
:10498000000000000000F80FF80F180018000C00DD
:10499000EC03FC071C0E001C0018001800180C1873
:1049A0001C0C180EF807E0030000000000000000D7
:1049B000000000000000C007F00F381C1818180095
:1049C0000C00CC03EC0F3C0E1C1C0C180C180C1823
:1049D000181C380EF007E003000000000000000083
:1049E000000000000000FC1FFC1F000C0006000679
:1049F000000380038001C001C000E000600060008F
:104A000070003000300030000000000000000000A6
:104A1000000000000000E003F007380E180C180C2E
:104A2000180C3806F007F007180C0C180C180C18A6
:104A30000C18380CF80FE003000000000000000024
:104A4000000000000000E003F007380E1C0C0C18FA
:104A50000C180C181C1C381EF81BE0190018000C50
:104A6000000C1C0EF807F001000000000000000020
:104A70000000000000000000000000000000000036
:104A80008001800100000000000000000000000024
:104A90000000000080018001000000000000000014
:104AA0000000000000000000000000000000000006
:104AB00080018001000000000000000000000000F4
:104AC0000000000080018001000100018000000062
:104AD00000000000000000000000000000000000D6
:104AE000000000000010001C800FE003F800180018
:104AF000F800E003800F001C001000000000000020
:104B000000000000000000000000000000000000A5
:104B100000000000F81F000000000000F81F000067
:104B20000000000000000000000000000000000085
:104B30000000000000000000000000000000000075
:104B40000000000008003800F001C007001F001836
:104B5000001FC007F001380008000000000000003E
:104B6000000000000000E003F80F180C0C180C18EF
:104B70000018000C000600038001C000C000C00047
:104B800000000000C000C0000000000000000000A5
:104B90000000000000000000E00718180420C229EF
:104BA000224A114409440944094409221113E20C20
:104BB000024004201818E007000000000000000078
:104BC00000000000000080038003C006C006C0068D
:104BD000600C600C301830183018F83FF83F1C702B
:104BE0000C600C6006C006C0000000000000000061
:104BF000000000000000FC03FC0F0C0C0C180C184B
:104C00000C180C0CFC07FC0F0C180C300C300C3082
:104C10000C300C18FC1FFC07000000000000000016
:104C2000000000000000C007F01F38381C300C7076
:104C30000660060006000600060006000600066084
:104C40000C701C30F01FE0070000000000000000A6
:104C5000000000000000FE03FE0F060E06180618F6
:104C600006300630063006300630063006300618AC
:104C70000618060EFE0FFE030000000000000000F4
:104C8000000000000000FC3FFC3F0C000C000C008A
:104C90000C000C00FC1FFC1F0C000C000C000C0096
:104CA0000C000C00FC3FFC3F000000000000000076
:104CB000000000000000F83FF83F1800180018003E
:104CC00018001800F81FF81F180018001800180026
:104CD0001800180018001800000000000000000074
:104CE000000000000000E00FF83F3C780E6006E096
:104CF00007C00300030003FE03FE03C007C006C095
:104D00000EC03CF0F83FE00F000000000000000083
:104D10000000000000000C300C300C300C300C3067
:104D20000C300C30FC3FFC3F0C300C300C300C30A5
:104D30000C300C300C300C30000000000000000083
:104D400000000000000080018001800180018001DE
:104D5000800180018001800180018001800180014B
:104D6000800180018001800100000000000000003F
:104D70000000000000000006000600060006000615
:104D800000060006000600060006000600061806DB
:104D900018063807F003E0010000000000000000E2
:104DA00000000000000006300618060C0606060388
:104DB0008601C60066007600DE008E010603060648
:104DC000060C061806300660000000000000000017
:104DD000000000000000180018001800180018005B
:104DE0001800180018001800180018001800180003
:104DF00018001800F81FF81F000000000000000055
:104E00000000000000000EE01EF01EF01EF036D87C
:104E100036D836D836D866CC66CC66CCC6C6C6C6BA
:104E2000C6C6C6C686C386C30000000000000000D8
:104E30000000000000000C301C303C303C306C3076
:104E40006C30CC30CC308C310C330C330C360C360F
:104E50000C3C0C3C0C380C30000000000000000042
:104E6000000000000000E007F81F1C380E7006600C
:104E700003C003C003C003C003C003C003C0066077
:104E80000E701C38F81FE007000000000000000052
:104E9000000000000000FC0FFC1F0C380C300C3030
:104EA0000C300C300C18FC1FFC070C000C000C0024
:104EB0000C000C000C000C000000000000000000C2
:104EC000000000000000E007F81F1C380E700660AC
:104ED00003E003C003C003C003C003C007E00663D0
:104EE0000E3F1C3CF83FE0F700C00000000000004F
:104EF000000000000000FE0FFE1F063806300630DE
:104F000006300638FE1FFE0706030606060C0618C6
:104F100006180630063006600000000000000000A1
:104F2000000000000000E003F80F1C0C0C180C1827
:104F30000C001C00F803E00F001E0038063006309D
:104F40000E301C1CF80FE0070000000000000000FD
:104F5000000000000000FE7FFE7F800180018001D4
:104F60008001800180018001800180018001800139
:104F7000800180018001800100000000000000002D
:104F80000000000000000C300C300C300C300C30F5
:104F90000C300C300C300C300C300C300C300C3031
:104FA0000C301818F81FE007000000000000000097
:104FB00000000000000003600630063006300C18C8
:104FC0000C180C18180C180C380E30063006700728
:104FD00060036003C001C001000000000000000089
:104FE0000000000000000360C361C361C361663359
:104FF000663366336633663366336C1B6C1B6C1B1F
:105000002C1A3C1E380E380E000000000000000074
:105010000000000000000FE00C7018303018700C19
:10502000600EC00780038003C003E006700C301CD4
:1050300018180C300E6007E00000000000000000AF
:1050400000000000000003C006600C301C38381857
:10505000300C6006E007C003800180018001800100
:10506000800180018001800100000000000000003C
:10507000000000000000FC7FFC7F00600030001892
:10508000000C000600038001C00060003000180022
:105090000C000600FE7FFE7F000000000000000004
:1050A000000000000000E003E0036000600060001A
:1050B00060006000600060006000600060006000F0
:1050C0006000600060006000600060006000E0035D
:1050D000E00300000000300030006000600060006D
:1050E000C000C000C000C001800180018001000339
:1050F000000300030006000600000000000000009E
:10510000000000000000E003E003000300030003D0
:105110000003000300030003000300030003000377
:105120000003000300030003000300030003E00387
:10513000E003000000000000C001C0016003600344
:10514000600330063006180C180C00000000000048
:10515000000000000000000000000000000000004F
:10516000000000000000000000000000000000003F
:10517000000000000000000000000000000000002F
:10518000000000000000FFFFFFFF00000000000023
:105190000000000000000C000C000C000C000C00D3
:1051A0000C000000000000000000000000000000F3
:1051B00000000000000000000000000000000000EF
:1051C00000000000000000000000000000000000DF
:1051D000F003F8071C0C0C0C000FF00FF80C0C0C73
:1051E0000C0C1C0FF80FF01800000000000000006D
:1051F0000000000000001800180018001800180037
:10520000D803F80F380C1818181818181818181888
:105210001818380CF80FD803000000000000000038
:10522000000000000000000000000000000000007E
:10523000C003F007300E180C1800180018001800F2
:10524000180C300EF007C003000000000000000042
:1052500000000000000000180018001800180018D6
:10526000C01BF01F301C1818181818181818181818
:105270001818301CF01FC01B0000000000000000C8
:10528000000000000000000000000000000000001E
:10529000C003F00F300C1818F81FF81F1800180082
:1052A0003818301CF00FC00700000000000000009C
:1052B000000000000000800FC00FC000C000C00050
:1052C000F007F007C000C000C000C000C000C00070
:1052D000C000C000C000C0000000000000000000CE
:1052E00000000000000000000000000000000000BE
:1052F000E00DF80F180E0C0C0C0C0C0C0C0C0C0C1C
:105300000C0C180EF80FE00D000C0C0C1C06F80726
:10531000F001000000001800180018001800180024
:10532000D807F80F381C1818181818181818181853
:1053300018181818181818180000000000000000AD
:10534000000000000000C000C000000000000000DD
:10535000C000C000C000C000C000C000C000C0004D
:10536000C000C000C000C00000000000000000003D
:10537000000000000000C000C000000000000000AD
:10538000C000C000C000C000C000C000C000C0001D
:10539000C000C000C000C000C000C000C000F800D5
:1053A0007800000000000C000C000C000C000C0049
:1053B0000C0C0C060C038C01CC006C00FC009C0156
:1053C0008C030C030C060C0C000000000000000015
:1053D000000000000000C000C000C000C000C0000D
:1053E000C000C000C000C000C000C000C000C000BD
:1053F000C000C000C000C0000000000000000000AD
:10540000000000000000000000000000000000009C
:105410007C3CFF7EC7E383C183C183C183C183C159
:1054200083C183C183C183C100000000000000006C
:10543000000000000000000000000000000000006C
:105440009807F80F381C1818181818181818181872
:10545000181818181818181800000000000000008C
:10546000000000000000000000000000000000003C
:10547000C003F00F300C181818181818181818183E
:105480001818300CF00FC0030000000000000000EE
:10549000000000000000000000000000000000000C
:1054A000D803F80F380C18181818181818181818E6
:1054B0001818380CF80FD803180018001800180036
:1054C00018000000000000000000000000000000C4
:1054D000C01BF01F301C18181818181818181818A6
:1054E0001818301CF01FC01B0018001800180018F6
:1054F0000018000000000000000000000000000094
:10550000B007F00370003000300030003000300091
:1055100030003000300030000000000000000000CB
:10552000000000000000000000000000000000007B
:10553000E003F003380E180C3800F003C007000C2D
:10554000180C380EF007E003000000000000000017
:1055500000000000000000008000C000C000C0008B
:10556000F007F007C000C000C000C000C000C000CD
:10557000C000C000C007800700000000000000005D
:10558000000000000000000000000000000000001B
:10559000181818181818181818181818181818188B
:1055A0001818381CF01FE01900000000000000006F
:1055B00000000000000000000000000000000000EB
:1055C0000C18180C180C180C300630063006600346
:1055D00060036003C001C001000000000000000083
:1055E00000000000000000000000000000000000BB
:1055F000C141C141C3616363636363633636363659
:1056000036361C1C1C1C1C1C000000000000000086
:10561000000000000000000000000000000000008A
:105620001C38381C300C60066003600360036003A4
:105630006006300C381C1C38000000000000000020
:10564000000000000000000000000000000000005A
:105650001830301830187018600C600CE00CC00660
:10566000C00680038003800380018001C001F00038
:1056700070000000000000000000000000000000BA
:10568000FC1FFC1F000C000600038001C00060002E
:1056900030001800FC1FFC1F00000000000000008C
:1056A00000000000000000038001C000C000C00036
:1056B000C000C000C000600060003000600040001A
:1056C000C000C000C000C000C000C00080010003D6
:1056D0000000000000008001800180018001800145
:1056E00080018001800180018001800180018001B2
:1056F00080018001800180018001800180018001A2
:105700008001000000006000C000C0018001800135
:1057100080018001800100030003000600030001F6
:10572000800180018001800180018001C000600053
:105730000000000000000000000000000000000069
:1057400000000000F010F81F080F0000000000002B
:105750000000000000000000000000000000000049
:1057600000000000845700080000002064000000D2
:10577000043A0008E857000864000020740500009F
:10578000143A0008000000000000000000000000C3
:1057900010000000010000000024F40000000000E0
:1057A0004D4400080100000000000000D142000844
:1057B0000A00000000000000A5430008640000008B
:1057C00000000000F9440008640000000000000030
:1057D00000010101010101010000000000000000C2
:0857E000FFFF000000000000C3
:04000005080001D915
:00000001FF
