:10048F000220000F022C000502120000021C0000C7
:10000E005389F0438901758A66758CFCC28DD28C3A
:05001E00D2A9D2AF22BF
:1004C700E4F5C9F5C875CC4875CDFF75CA4875CB35
:0804D700FFC2CAD2ADD2AF2270
:10030700C3E50B9464E50A648094804025E4F50A0C
:10031700F50BE5094508700A051FE51F7014051E52
:100327008010E509640145087008E51F151F700274
:10033700151ED3E51F9400E51E648094805007E4E2
:10034700F508F5098013C3E51F9464E51E648094DE
:10035700804006750800750901C3E50B951FE51E6A
:100367006480F8E50A6480985007C2A0C2A6C2A7B5
:0803770022D2A0D2A6D2A722D7
:10002E001204AC12000E1204C7C2A5AD0DAC0C7FAB
:10003E000112037FAD0FAC0E7F0212037FAD13AC26
:10004E00127F0412037F20B117D3E529940AE52805
:10005E0064809480500F0529E529700905288005D4
:10006E00E4F528F529E529640A45287002B2A02096
:10007E00A0087514007515018005E4F514F515201A
:10008E00B017D3E52B940AE52A64809480500F05AF
:10009E002BE52B7009052A8005E4F52AF52BE52BB7
:1000AE00640A452A7002B2A620A6087516007517B6
:1000BE00018005E4F516F51720B217D3E52F940A43
:1000CE00E52E64809480500F052FE52F7009052EC4
:1000DE008005E4F52EF52FE52F640A452E7002B249
:1000EE00A720A708751A00751B018005E4F51AF5FF
:1000FE001BE52145207014E513652D7004E512658E
:10010E002C6008D2CA751C00751D01E513652D7093
:10011E0004E512652C6003020039C28CD2CA1203A8
:10012E0007E4FDFC7F0112037FE4FDFC7F02120356
:04013E007F02003903
:03000B00020142AD
:10014200C0E0C0F0C083C082C0D075D000C000C083
:1001520001C002C003C004C005C006C007758A669C
:10016200758CFCE51D6401451C7002B2A50525E5F0
:100172002570020524C394E8E5249403405CE51746
:1001820025E0FDE51633FCE515AE147802C333CE47
:1001920033CED8F92DFFEE3CFEE51B2FF513E51A01
:1001A2003EF512AF13120003752400752500E521F8
:1001B20045206026E521152170021520AE20AF21D1
:1001C2007C007D0A1203E88E0C8F0DAE20AF217CDD
:1001D200007D0A1203E88C0E8D0FD007D006D005E1
:1001E200D004D003D002D001D000D0D0D082D083AE
:0501F200D0F0D0E03266
:030023000204DFF5
:1004DF00C0D075D000C007309809AF997512008F42
:0804EF0013C298D007D0D032EF
:03002B000202834B
:10028300C0E0C0D0C2CFC2CEE513652D7004E51225
:10029300652C60590511E51170020510C394F4E54E
:1002A30010940140487510007511000519E5197087
:1002B300020518E5187023E51924FE600F14601475
:1002C30024027016D2A0D2A6C2A7800ED2A0C2A6C4
:1002D300D2A78006C2A0D2A6D2A7C3E5199403E58C
:1002E30018648094804006751800751900E513B5ED
:1002F3002D0DE512B52C08050BE50B7002050AD090
:04030300D0D0E03244
:0C049F000A303F065B4F666D7D077F6FE3
:10037F00EF14B40800505490039475F003A4C58390
:10038F0025F0C583730203AC0203B00203B402036A
:10039F00B80203BC0203C40203CC0203D4D2A4806C
:1003AF000ED2A48012D2A48016D2A4801AC2A4D2D4
:1003BF00A3D2A28016C2A4D2A3C2A2800EC2A4C28C
:1003CF00A3D2A28006C2A4C2A3C2A274302DF8E6A3
:0903DF00F580120026E4F58022ED
:1004F700EF4E600F7D027CC7DCFEDDFCEF1F70F066
:030507001E80ED66
:01050A0022CE
:040026007F2BDFFE4F
:01002A0022B3
:1004AC0053877F75985053890F438920758BFD7541
:0B04BC008DFDC2ABD28ED2AFD2AC22BD
:080003008F993099FDC299228A
:10043D0075A0FE7F647E001204F775A0FD7F647EBB
:10044D00001204F775A0FB7F647E001204F775A0FF
:10045D00F77F647E001204F775A0EF7F647E0012B3
:10046D0004F775A0DF7F647E001204F775A0BF7FCF
:10047D00647E001204F775A07F7F647E001204F77E
:02048D0080AE3F
:030000000201F703
:0C01F700787FE4F6D8FD75813902023EE5
:1003E800BC000BBE0029EF8DF084FFADF022E4CCF9
:1003F800F875F008EF2FFFEE33FEEC33FCEE9DECC2
:10040800984005FCEE9DFE0FD5F0E9E4CEFD22ED07
:10041800F8F5F0EE8420D21CFEADF075F008EF2F51
:10042800FFED33FD4007985006D5F0F222C398FD42
:050438000FD5F0EA22DF
:1002030002002EE493A3F8E493A34003F68001F2E3
:1002130008DFF48029E493A3F85407240CC8C333FC
:10022300C4540F4420C8834004F456800146F6DFCB
:10023300E4800B010204081020408090048FE47EC8
:10024300019360BCA3FF543F30E509541FFEE493C0
:10025300A360010ECF54C025E060A840B8E493A387
:10026300FAE493A3F8E493A3C8C582C8CAC583CAB2
:10027300F0A3C8C582C8CAC583CADFE9DEE780BE6A
:0104AB000050
:00000001FF
