:09063E0001090101120A01133245
:10054800C3E5089515E495144003E4F508AF137E58
:1005580000AC14AD15120225AC06AD07E41201A2D9
:100568007B0A7AD77923783C12001EC004C005C0E4
:1005780006C007AC08E41201A7A804A905AA06AB9F
:1005880007D007D006D005D0041201245003D2A703
:0405980022C2A722B2
:10029A00E50924FE70030203271470030203B7243E
:1002AA00026003020452120548E5196020E4F519B8
:1002BA001205E18F10E510B40103750901E510B4C8
:1002CA000203750902E510B40303750903E5127503
:1002DA00F00A84FD7C007F031204DFE51275F00A40
:1002EA0084E5F0FD7C007F041204DFE51375F064F9
:1002FA0084FD7C007F051204DFE51375F06484E554
:10030A00F075F00A84FD7C007F061204DFE51375A0
:10031A00F00A84E5F0FD7C007F070204DF7D017CA2
:10032A00007F041204DFE51275F00A84FD7C007F69
:10033A00051204DFE51275F00A84E5F0FD7C007F02
:10034A00061204DF20B10BE50ED394FA5007050E0E
:10035A008003E4F50EE50EB4FA0CE4F50EE512D3CB
:10036A0094004002151220B30BE511D394FA5007FA
:10037A0005118003E4F511E511B4FA0CE4F511E571
:10038A0012C3943250020512E5196010E4F51912ED
:10039A0005E18F10E510B40103750901E512FD7C32
:1003AA00007E277F101202378E148F15227D027C61
:1003BA00007F041204DFE51375F06484FD7C007F7E
:1003CA00051204DFE51375F06484E5F075F00A841C
:1003DA00FD7C007F061204DFE51375F00A84E5F060
:1003EA00FD7C007F071204DF20B10BE50FD394FADE
:1003FA005007050F8003E4F50FE50FB4FA10E4F592
:10040A000FE513D39400400674F62513F51320B3B1
:10041A000BE518D394FA500705188003E4F518E59C
:10042A0018B4FA10E4F518E513C394645006740A74
:10043A002513F513E5196010E4F5191205E18F107B
:09044A00E510B40103750901225B
:100660005389F0438901E4F58A758CDCC28DD28C04
:05067000D2A9D2AF2267
:1006890053890F758BA4758DFFC28FD28ED2AB2281
:0D000E00120660120689C2A512029A80FB3C
:03000B00020615D5
:10061500C0E0C0D0758A00758CDC751901050BE545
:100625000B7002050AC394E8E50A94034006750AAF
:0906350000750B00D0D0D0E032BA
:03001B0002069941
:09069900758BA4758DFF05083274
:0C0647000A1A3F065B4F666D7D077F6F4F
:1004DF00EF14B4080050549004F475F003A4C583CE
:1004EF0025F0C5837302050C0205100205140205E1
:1004FF001802051C02052402052C020534D2A48023
:10050F000ED2A48012D2A48016D2A4801AC2A4D272
:10051F00A3D2A28016C2A4D2A3C2A2800EC2A4C22A
:10052F00A3D2A28006C2A4C2A3C2A2741A2DF8E657
:09053F00F580120003E4F58022AE
:10067500EF4E600F7D027CC7DCFEDDFCEF1F70F0E6
:030685001E80EDE7
:01068800224F
:040003007F2BDFFE72
:0100070022D6
:0C06530001240001250001260001270001
:10059C00E4FFA2B033FEE524146012146019146059
:1005AC002D2403702FEE702C7524018027EE702102
:1005BC00F525752402801DEE60047F01801305254E
:1005CC00E525C39464400D7F037524038006EE601B
:0405DC0003E4F5241B
:0105E00022F8
:1005E100E4FD12059CE526146012047024BF010885
:1005F100E4F5277526018019AD078015BF01047D3B
:1006010002800B0527E527C3943240057D01E4F5FF
:0306110026AF050C
:0106140022C3
:10001E00EC4D6011E8497017ED33EC3304600DE4DC
:10002E00FCFFFEFD22E933E8330470F802021012E1
:10003E0001DB58046009E4CC2481500628500902E3
:10004E00021A284003020217C0E0EB4A7044B9803E
:10005E0006D0E0FB020206EF4E701CBD8008EBFFDF
:10006E00EAFEE9FD80EBE98DF0A4FEE5F002010762
:10007E00E9CDF9EAFEEBFFEF89F0A4FCE5F0CE89BD
:10008E00F0A42EFFE435F0CD89F0A42DFEE435F07A
:10009E008067EF4E7005BD80D780C3EF8BF0A4ACA8
:1000AE00F0EE8BF0A42CFCE435F0F8EF8AF0A42CE3
:1000BE00E5F038FCE433CB8DF0A42CFCE5F03BF8F6
:1000CE00EE8AF0A42CFCE5F038F8E433CF89F0A4E6
:1000DE002CFCE5F038CF3400CE89F0A42FFFE5F0EC
:1000EE003EFEE433C98DF0A42EFEE5F039CD8AF044
:1000FE00A42FFFE5F03EFEE43DFD33D0E0FB5007BC
:10010E000BBB000F02021AEC2CFCEF33FFEE33FE9A
:06011E00ED33FD0201F2C9
:1001240074F8CC6480CCC86480C8F58204604FC382
:10013400EB9FF5F0EA9E42F0E99D42F0E89C45F021
:10014400603C501DE5825FFFE582D313CB5BCBF4AB
:100154002B5582FB50280ABA002409B900200880D4
:100164001DE5825BFBE582D313CF5FCFF4C3132F6E
:100174005582FF50090EBE00050DBD00010CC3EBF6
:100184009FF5F0EA9E42F0E99D42F0E89C45F0605C
:0901940007CC4820E701B3EC227E
:10019D0075F020800E75F010800575F0087D007EDD
:1001AD00007F003392D530D50312028CEC33401012
:1001BD00EF33FFEE33FEED33FDEC33FCD5F0ED22E6
:0E01CD00E5F0247EA2D513CC92E7CDCEFF2222
:1001DB00E9D2E7C933E833F892D5EDD2E7CD33EC6A
:0701EB0033FC5002B2D522E3
:1001F200EC30E7100FBF000C0EBE00080DBD00046E
:100202000BEB6014A2D5EB13FCED92E7FD2274FF19
:10021200FCFDFEFF22E480F8A2D574FF13FC7D8072
:03022200E480EF86
:03000000020453A4
:0C045300787FE4F6D8FD75812702049A3A
:10022500EF8DF0A4A8F0CF8CF0A428CE8DF0A42EED
:02023500FE22A7
:10023700BC000BBE0029EF8DF084FFADF022E4CCAB
:10024700F875F008EF2FFFEE33FEEC33FCEE9DEC74
:10025700984005FCEE9DFE0FD5F0E9E4CEFD22EDBA
:10026700F8F5F0EE8420D21CFEADF075F008EF2F04
:10027700FFED33FD4007985006D5F0F222C398FDF5
:050287000FD5F0EA2292
:0E028C00C3E49FFFE49EFEE49DFDE49CFC2283
:10045F0002000EE493A3F8E493A34003F68001F2A5
:10046F0008DFF48029E493A3F85407240CC8C3339E
:10047F00C4540F4420C8834004F456800146F6DF6D
:10048F00E4800B010204081020408090063EE47EB9
:10049F00019360BCA3FF543F30E509541FFEE49362
:1004AF00A360010ECF54C025E060A840B8E493A329
:1004BF00FAE493A3F8E493A3C8C582C8CAC583CA54
:1004CF00F0A3C8C582C8CAC583CADFE9DEE780BE0C
:01065F00009A
:00000001FF
