:1007AF00011D00012D0001090101200A0124320C55
:0D07BF000A663D2D2D2C643D2D2D2D2E00A4
:10071400C3E5089526E495254003E4F508AF247E57
:1007240000AC25AD26120262AC06AD07E41201B29C
:100734007B0A7AD77923783C12002EC004C005C006
:1007440006C007AC08E41201B7A804A905AA06ABC1
:1007540007D007D006D005D004120134600250033C
:06076400D2A722C2A72269
:1002D700E50924FE70030203A514700302044324F6
:1002E700026003020523E52A6020E4F52A1207E5E8
:1002F7008F1CE51CB40103750901E51CB4020375E5
:100307000902E51CB4030375090320B30BE51ED3EB
:1003170094FA5007051E8003E4F51EE51EB4FA1093
:10032700E4F51EFF1208198F207F011208198F2488
:10033700E520FD7C007E037FE81202748E258F2660
:10034700E51DB401091209A48B218A228923E5201E
:1003570075F00A84FD7C007F031206ABE52075F07B
:100367000A84E5F0FD7C007F041206ABE52475F0F6
:100377006484FD7C007F051206ABE52475F0648478
:10038700E5F075F00A84FD7C007F061206ABE524D4
:1003970075F00A84E5F0FD7C007F070206AB7D015E
:1003A7007C007F041206ABE52075F00A84FD7C0013
:1003B7007F051206ABE52075F00A84E5F0FD7C00A9
:1003C7007F061206AB20B10BE518D394FA50070548
:1003D700188003E4F518E518C394FA400CE4F518FF
:1003E700E520D394004002152020B20BE51FD394DB
:1003F700FA5007051F8003E4F51FE51FC394FA4071
:100407000BE4F51FE520943250020520E52A601918
:10041700E4F52A1207E58F1CE51CB4010C7B007A72
:1004270000790A1208E7750901E520FD7C007E03C3
:100437007FE81202748E258F260204E77D027C0076
:100447007F041206ABE52475F06484FD7C007F050C
:100457001206ABE52475F06484E5F075F00A84FDB7
:100467007C007F061206ABE52475F00A84E5F0FDF3
:100477007C007F071206AB20B10BE51BD394FA5023
:1004870007051B8003E4F51BE51BB4FA10E4F51B15
:10049700E524D39400400674F62524F52420B20BF6
:1004A700E529D394FA500705298003E4F529E529BE
:1004B700B4FA10E4F529E524C394645006740A25B8
:1004C70024F524E52A6019E4F52A1207E58F1CE5CF
:1004D7001CB4010C7B007A00790A1208E775090140
:1004E700E52075F00A842430F50CE52075F00A84C0
:1004F700E5F02430F50DE52475F064842430F5111A
:10050700E52475F06484E5F075F00A842430F5126B
:0D051700E52475F00A84E5F02430F5132288
:10000E005389F0438901758A66758CFCC28DD28C3A
:05001E00D2A9D2AF22BF
:10094300E4F5C9F5C8F5CC75CDDCF5CA75CBDCD2B9
:04095300CAD2AD2235
:10096B00C2A512000E120943120928120714120213
:03097B00D780F82A
:03000B000208499F
:10084900C0E0C0D0758A66758CFC05080517E517E8
:1008590070020516C3940AE516940040097516003E
:0B086900751700752A01D0D0D0E032D6
:03002B00020524A7
:10052400C0E0C0F0C083C082C0D075D000C000C09D
:1005340001C002C003C004C005C006C007C2CF0585
:100544002CE52C7002052BE52B7032E52C24FE6083
:1005540017047029E520B40A06E5246432601EE518
:1005640020FD7C00E4FF8012E520B40A06E5246443
:1005740032600AE524FD7C007F011208C3C3E52C28
:100584009402E52B94004006752B00752C00E51DA4
:100594006401706C051AE51A70020519C39464E5C8
:1005A400199400405B751900751A00E52D940640F6
:1005B40049752D00AB21AA22A9239000021202350D
:1005C40024D075F00AA4FF90000312023524D02F22
:1005D400F52090000812023524D075F00AA4FF908B
:1005E400000712023524D075F064A42FFF9000098F
:1005F40012023524D02FF5248003752D00751D00BB
:10060400D007D006D005D004D003D002D001D0004A
:0B061400D0D0D082D083D0F0D0E032F4
:0C07CC000A423F065B4F666D7D077F6FA1
:1006AB00EF14B4080050549006C075F003A4C58332
:1006BB0025F0C583730206D80206DC0206E00206AB
:1006CB00E40206E80206F00206F8020700D2A48054
:1006DB000ED2A48012D2A48016D2A4801AC2A4D2A5
:1006EB00A3D2A28016C2A4D2A3C2A2800EC2A4C25D
:1006FB00A3D2A28006C2A4C2A3C2A274422DF8E662
:09070B00F580120026E4F58022BD
:10095700EF4E600F7D027CC7DCFEDDFCEF1F70F001
:030967001E80ED02
:01096A00226A
:040026007F2BDFFE4F
:01002A0022B3
:0C07D800015300015400015500015600BF
:10076A00E4FFA2B033FEE55314601214601914605A
:10077A002D2403702FEE702C7553018027EE702103
:10078A00F554755302801DEE60047F0180130554F1
:10079A00E554C39464400D7F037553038006EE60ED
:0407AA0003E4F5531C
:0107AE002228
:1007E500E4FD12076AE555146012047024BF010880
:1007F500E4F5567555018019AD078015BF01047DD7
:1008050002800B0556E556C3943240057D01E4F59B
:0308150055AF05D7
:0108180022BD
:1008C3008F4C8C4D8D4E1209947FA012087412091F
:1008D3007EAF4C12087412097EAF4E1208741209CF
:0408E3007E02099DEB
:020819008F4FFF
:10081B001209947FA012087412097EAF4F1208744C
:10082B0012097E1209947FA112087412097E120913
:0D083B000A8F507F0112098A12099DAF50EB
:01084800228D
:09099400D2A0D2A1C2A0C2A1228E
:07099D00C2A0D2A1D2A022EA
:02087400AD07CE
:10087600E4FB74807E00A803088006CEA2E713CEB0
:1008860013D8F8FFEDF582EF558224FF92A0D2A18E
:06089600C2A10BBB08DC4F
:01089C002239
:10090A00E4FFD2A0FED2A130A00D7480A806088010
:0D091A0002C313D8FC4207C2A10EBE08E8BC
:0109270022AD
:0A098A00EF24FF92A0D2A1C2A12227
:0B097E00D2A0D2A1A2A0E433FFC2A1CE
:01098900224B
:1009280053877F75985053890F438920758BFA75C3
:0B0938008DFAC2ABD28ED2AFD2AC223F
:080003008F993099FDC299228A
:0608E7008B4F8A5089517D
:1008ED00AB4FAA50A951855282758300120235FF74
:0C08FD006007120003055280E7E4F5528A
:0109090022CB
:0709A4007B007A00792E228E
:0300230002089D33
:10089D00C0E0C0D075D000C000C00730980FAF2D9C
:1008AD00052D742E2FF8A699751D01C298D007D06D
:0608BD0000D0D0D0E032B3
:10002E00EC4D6011E8497017ED33EC3304600DE4CC
:10003E00FCFFFEFD22E933E8330470F802022012C1
:10004E0001EB58046009E4CC2481500628500902C3
:10005E00022A284003020227C0E0EB4A7044B9800E
:10006E0006D0E0FB020216EF4E701CBD8008EBFFBF
:10007E00EAFEE9FD80EBE98DF0A4FEE5F002011742
:10008E00E9CDF9EAFEEBFFEF89F0A4FCE5F0CE89AD
:10009E00F0A42EFFE435F0CD89F0A42DFEE435F06A
:1000AE008067EF4E7005BD80D780C3EF8BF0A4AC98
:1000BE00F0EE8BF0A42CFCE435F0F8EF8AF0A42CD3
:1000CE00E5F038FCE433CB8DF0A42CFCE5F03BF8E6
:1000DE00EE8AF0A42CFCE5F038F8E433CF89F0A4D6
:1000EE002CFCE5F038CF3400CE89F0A42FFFE5F0DC
:1000FE003EFEE433C98DF0A42EFEE5F039CD8AF034
:10010E00A42FFFE5F03EFEE43DFD33D0E0FB5007AB
:10011E000BBB000F02022AEC2CFCEF33FFEE33FE7A
:06012E00ED33FD020202A8
:1001340074F8CC6480CCC86480C8F58204604FC372
:10014400EB9FF5F0EA9E42F0E99D42F0E89C45F011
:10015400603C501DE5825FFFE582D313CB5BCBF49B
:100164002B5582FB50280ABA002409B900200880C4
:100174001DE5825BFBE582D313CF5FCFF4C3132F5E
:100184005582FF50090EBE00050DBD00010CC3EBE6
:100194009FF5F0EA9E42F0E99D42F0E89C45F0604C
:0901A40007CC4820E701B3EC226E
:1001AD0075F020800E75F010800575F0087D007ECD
:1001BD00007F003392D530D5031202C9EC334010C5
:1001CD00EF33FFEE33FEED33FDEC33FCD5F0ED22D6
:0E01DD00E5F0247EA2D513CC92E7CDCEFF2212
:1001EB00E9D2E7C933E833F892D5EDD2E7CD33EC5A
:0701FB0033FC5002B2D522D3
:10020200EC30E7100FBF000C0EBE00080DBD00045D
:100212000BEB6014A2D5EB13FCED92E7FD2274FF09
:10022200FCFDFEFF22E480F8A2D574FF13FC7D8062
:03023200E480EF76
:0300000002061FD6
:0C061F00787FE4F6D8FD7581560206666F
:10023500BB010CE58229F582E5833AF583E022507E
:1002450006E92582F8E622BBFE06E92582F8E222C8
:0D025500E58229F582E5833AF583E49322E2
:10026200EF8DF0A4A8F0CF8CF0A428CE8DF0A42EB0
:02027200FE226A
:10027400BC000BBE0029EF8DF084FFADF022E4CC6E
:10028400F875F008EF2FFFEE33FEEC33FCEE9DEC37
:10029400984005FCEE9DFE0FD5F0E9E4CEFD22ED7D
:1002A400F8F5F0EE8420D21CFEADF075F008EF2FC7
:1002B400FFED33FD4007985006D5F0F222C398FDB8
:0502C4000FD5F0EA2255
:0E02C900C3E49FFFE49EFEE49DFDE49CFC2246
:10062B0002096BE493A3F8E493A34003F68001F271
:10063B0008DFF48029E493A3F85407240CC8C333D0
:10064B00C4540F4420C8834004F456800146F6DF9F
:10065B00E4800B01020408102040809007AFE47E79
:10066B00019360BCA3FF543F30E509541FFEE49394
:10067B00A360010ECF54C025E060A840B8E493A35B
:10068B00FAE493A3F8E493A3C8C582C8CAC583CA86
:10069B00F0A3C8C582C8CAC583CADFE9DEE780BE3E
:0107E4000014
:00000001FF
