:1007090001090101210A0126320122000C0C663D72
:0A07190020202C643D2020202E003B
:10063A00C3E5089528E495274003E4F508AF267E2C
:10064A0000AC27AD28120262AC06AD07E41201B273
:10065A007B0A7AD77923783C12002EC004C005C0E1
:10066A0006C007AC08E41201B7A804A905AA06AB9C
:10067A0007D007D006D005D0041201346002500317
:06068A00D2A722C2A72244
:1002D700E50924FE700302039A14700302042A241A
:1002E7000260030204C512063AE52C6020E4F52CEF
:1002F7001206D58F1EE51EB40103750901E51EB46C
:100307000203750902E51EB4030375090320B20B46
:10031700E51FD394FA5007051F8003E4F51FE51F77
:10032700B4FA10E4F51FFF12073C8F217F01120773
:100337003C8F26E521FD7C007E037FE81202748E48
:10034700278F28E52175F00A84FD7C007F031205BD
:10035700D1E52175F00A84E5F0FD7C007F041205E4
:10036700D1E52675F06484FD7C007F051205D1E593
:100377002675F06484E5F075F00A84FD7C007F063D
:100387001205D1E52675F00A84E5F0FD7C007F07AC
:100397000205D17D017C007F041205D1E52175F0AE
:1003A7000A84FD7C007F051205D1E52175F00A84DA
:1003B700E5F0FD7C007F061205D120B10BE51CD3CB
:1003C70094FA5007051C8003E4F51CE51CB4FA0CED
:1003D700E4F51CE521D394004002152120B30BE579
:1003E70020D394FA500705208003E4F520E520B4D4
:1003F700FA0CE4F520E521C3943250020521E52CDF
:100407006010E4F52C1206D58F1EE51EB4010375A6
:100417000901E521FD7C007E037FE81202748E2727
:100427008F28227D027C007F041205D1E52675F016
:100437006484FD7C007F051205D1E52675F0648490
:10044700E5F075F00A84FD7C007F061205D1E526EC
:1004570075F00A84E5F0FD7C007F071205D120B115
:100467000BE51DD394FA5007051D8003E4F51DE540
:100477001DB4FA10E4F51DE526D39400400674F682
:100487002526F52620B30BE52BD394FA5007052B29
:100497008003E4F52BE52BB4FA10E4F52BE526C32E
:1004A70094645006740A2526F526E52C6010E4F5B9
:0F04B7002C1206D58F1EE51EB401037509012214
:10000E005389F0438901758A66758CFCC28DD28C3A
:05001E00D2A9D2AF22BF
:1008880053890F438910E4F58B758DDCC28FD28EA6
:03089800D2AB22BE
:10086000E4F5C9F5C8F5CC75CDDCF5CA75CBDCD29D
:04087000CAD2AD2219
:10089B00C2A512000E12088812086012063A120244
:0308AB00D780F8FB
:03000B0002076C7D
:10076C00C0E0C0D0758A66758CFC05080519E519C2
:10077C0070020518C3940AE5189400400975180016
:0B078C00751900752C01D0D0D0E032B0
:03002B0002055279
:10055200C0E0C0F0C083C082C0D075D000C000C06F
:1005620001C002C003C004C005C006C007C2CF0557
:100572002EE52E7002052DE52D7028E52E24FE6055
:100582001204701FE521640A6019E521FD7C00E474
:10059200FF800DE5266432600AE526FD7C007F01BE
:1005A2001207C0C3E52E9402E52D94004006752D76
:1005B20000752E00D007D006D005D004D003D0029B
:0F05C200D001D000D0D0D082D083D0F0D0E032A2
:0C0723000A443F065B4F666D7D077F6F48
:1005D100EF14B4080050549005E675F003A4C583E8
:1005E10025F0C583730205FE020602020606020615
:1005F1000A02060E02061602061E020626D2A48072
:100601000ED2A48012D2A48016D2A4801AC2A4D27F
:10061100A3D2A28016C2A4D2A3C2A2800EC2A4C237
:10062100A3D2A28006C2A4C2A3C2A274442DF8E63A
:09063100F580120026E4F5802298
:10087400EF4E600F7D027CC7DCFEDDFCEF1F70F0E5
:030884001E80EDE6
:01088700224E
:040026007F2BDFFE4F
:01002A0022B3
:0C072F0001530001540001550001560068
:10069000E4FFA2B033FEE553146012146019146035
:1006A0002D2403702FEE702C7553018027EE7021DE
:1006B000F554755302801DEE60047F0180130554CC
:1006C000E554C39464400D7F037553038006EE60C8
:0406D00003E4F553F7
:0106D4002203
:1006D500E4FD120690E555146012047024BF01086C
:1006E500E4F5567555018019AD078015BF01047DE8
:1006F50002800B0556E556C3943240057D01E4F5AD
:0307050055AF05E8
:0107080022CE
:1007C0008F4E8C4F8D501208C47FA01207971208CD
:1007D000AEAF4E1207971208AEAF5012079712082D
:0407E000AE0208CD90
:02073C008F51DB
:10073E001208C47FA01207971208AEAF5112079786
:10074E001208AE1208C47FA11207971208AE120843
:0D075E00278F527F011208BA1208CDAF524A
:01076B00226B
:0908C400D2A0D2A1C2A0C2A1225F
:0708CD00C2A0D2A1D2A022BB
:02079700AD07AC
:10079900E4FB74807E00A803088006CEA2E713CE8E
:1007A90013D8F8FFEDF582EF558224FF92A0D2A16C
:0607B900C2A10BBB08DC2D
:0107BF002217
:10082700E4FFD2A0FED2A130A00D7480A8060880F4
:0D08370002C313D8FC4207C2A10EBE08E8A0
:010844002291
:0A08BA00EF24FF92A0D2A1C2A122F8
:0B08AE00D2A0D2A1A2A0E433FFC2A19F
:0108B900221C
:1008450053877F75985053890F438920758BFA75A7
:0B0855008DFAC2ABD28ED2AFD2AC2223
:080003008F993099FDC299228A
:060807008B578A58895945
:10080D00AB57AA58A959855A82758300120235FF34
:09081D006007120003055A80E790
:0108260022AF
:0708D4007B007A00792F225E
:030023000207E4ED
:1007E400C0E0C0D075D000C000C00730980CAF4343
:1007F4000543742F2FF8A699C298D007D000D0D003
:03080400D0E0320F
:10002E00EC4D6011E8497017ED33EC3304600DE4CC
:10003E00FCFFFEFD22E933E8330470F802022012C1
:10004E0001EB58046009E4CC2481500628500902C3
:10005E00022A284003020227C0E0EB4A7044B9800E
:10006E0006D0E0FB020216EF4E701CBD8008EBFFBF
:10007E00EAFEE9FD80EBE98DF0A4FEE5F002011742
:10008E00E9CDF9EAFEEBFFEF89F0A4FCE5F0CE89AD
:10009E00F0A42EFFE435F0CD89F0A42DFEE435F06A
:1000AE008067EF4E7005BD80D780C3EF8BF0A4AC98
:1000BE00F0EE8BF0A42CFCE435F0F8EF8AF0A42CD3
:1000CE00E5F038FCE433CB8DF0A42CFCE5F03BF8E6
:1000DE00EE8AF0A42CFCE5F038F8E433CF89F0A4D6
:1000EE002CFCE5F038CF3400CE89F0A42FFFE5F0DC
:1000FE003EFEE433C98DF0A42EFEE5F039CD8AF034
:10010E00A42FFFE5F03EFEE43DFD33D0E0FB5007AB
:10011E000BBB000F02022AEC2CFCEF33FFEE33FE7A
:06012E00ED33FD020202A8
:1001340074F8CC6480CCC86480C8F58204604FC372
:10014400EB9FF5F0EA9E42F0E99D42F0E89C45F011
:10015400603C501DE5825FFFE582D313CB5BCBF49B
:100164002B5582FB50280ABA002409B900200880C4
:100174001DE5825BFBE582D313CF5FCFF4C3132F5E
:100184005582FF50090EBE00050DBD00010CC3EBE6
:100194009FF5F0EA9E42F0E99D42F0E89C45F0604C
:0901A40007CC4820E701B3EC226E
:1001AD0075F020800E75F010800575F0087D007ECD
:1001BD00007F003392D530D5031202C9EC334010C5
:1001CD00EF33FFEE33FEED33FDEC33FCD5F0ED22D6
:0E01DD00E5F0247EA2D513CC92E7CDCEFF2212
:1001EB00E9D2E7C933E833F892D5EDD2E7CD33EC5A
:0701FB0033FC5002B2D522D3
:10020200EC30E7100FBF000C0EBE00080DBD00045D
:100212000BEB6014A2D5EB13FCED92E7FD2274FF09
:10022200FCFDFEFF22E480F8A2D574FF13FC7D8062
:03023200E480EF76
:030000000204C631
:0C04C600787FE4F6D8FD75815A02050D20
:10023500BB010CE58229F582E5833AF583E022507E
:1002450006E92582F8E622BBFE06E92582F8E222C8
:0D025500E58229F582E5833AF583E49322E2
:10026200EF8DF0A4A8F0CF8CF0A428CE8DF0A42EB0
:02027200FE226A
:10027400BC000BBE0029EF8DF084FFADF022E4CC6E
:10028400F875F008EF2FFFEE33FEEC33FCEE9DEC37
:10029400984005FCEE9DFE0FD5F0E9E4CEFD22ED7D
:1002A400F8F5F0EE8420D21CFEADF075F008EF2FC7
:1002B400FFED33FD4007985006D5F0F222C398FDB8
:0502C4000FD5F0EA2255
:0E02C900C3E49FFFE49EFEE49DFDE49CFC2246
:1004D20002089BE493A3F8E493A34003F68001F29D
:1004E20008DFF48029E493A3F85407240CC8C3332B
:1004F200C4540F4420C8834004F456800146F6DFFA
:10050200E4800B0102040810204080900709E47E79
:10051200019360BCA3FF543F30E509541FFEE493EE
:10052200A360010ECF54C025E060A840B8E493A3B5
:10053200FAE493A3F8E493A3C8C582C8CAC583CAE0
:10054200F0A3C8C582C8CAC583CADFE9DEE780BE98
:01073B0000BD
:00000001FF
