:10095900011D00012D0001090101200A0124320CA9
:0D0969000A663D2D2D2C643D2D2D2D2E00F8
:1008BE00C3E5089526E495254003E4F508AF247EAC
:1008CE0000AC25AD2612035AAC06AD07E41202AAFF
:1008DE007B0A7AD77923783C120126C004C005C062
:1008EE0006C007AC08E41202AFA804A905AA06AB1D
:1008FE0007D007D006D005D00412022C6002500398
:06090E00D2A722C2A722BD
:10071700C3E5089526E495254003E4F508AF247E54
:1007270000AC25AD2612035AAC06AD07E41202AAA7
:100737007B0A7AD77923783C120126C004C005C00A
:1007470006C007AE25AF267C007D0512036CAC06FC
:10075700AD07E41202AAD003D002D001D0001200E4
:1007670035C004C005C006C007AC08E41202AFA834
:1007770004A905AA06AB07D007D006D005D00412F6
:10078700022C60025039AE25AF267C007D0512038E
:100797006CAC06AD07E41202AAC004C005C006C0CF
:1007A70007AC08E41202AFA804A905AA06AB07D054
:1007B70007D006D005D00412022C4003D2A622C2CD
:0207C700A62268
:1003CF00E50924FE700302049D14700302053B240B
:1003DF0002600302061BE52A6020E4F52A12098F4A
:1003EF008F1CE51CB40103750901E51CB4020375EC
:1003FF000902E51CB4030375090320B30BE51ED3F3
:10040F0094FA5007051E8003E4F51EE51EB4FA109A
:10041F00E4F51EFF1209C38F207F011209C38F2439
:10042F00E520FD7C007E037FE812036C8E258F266E
:10043F00E51DB40109120B518B218A228923E52076
:10044F0075F00A84FD7C007F03120855E52075F0D6
:10045F000A84E5F0FD7C007F04120855E52475F051
:10046F006484FD7C007F05120855E52475F06484D3
:10047F00E5F075F00A84FD7C007F06120855E5242F
:10048F0075F00A84E5F0FD7C007F070208557D01B9
:10049F007C007F04120855E52075F00A84FD7C006E
:1004AF007F05120855E52075F00A84E5F0FD7C0004
:1004BF007F0612085520B10BE518D394FA500705A3
:1004CF00188003E4F518E518C394FA400CE4F51806
:1004DF00E520D394004002152020B20BE51FD394E2
:1004EF00FA5007051F8003E4F51FE51FC394FA4078
:1004FF000BE4F51FE520943250020520E52A601920
:10050F00E4F52A12098F8F1CE51CB4010C7B007ACD
:10051F0000790A120A91750901E520FD7C007E031E
:10052F007FE812036C8E258F260205DF7D027C008B
:10053F007F04120855E52475F06484FD7C007F0567
:10054F00120855E52475F06484E5F075F00A84FD12
:10055F007C007F06120855E52475F00A84E5F0FD4E
:10056F007C007F0712085520B10BE51BD394FA507E
:10057F0007051B8003E4F51BE51BB4FA10E4F51B1C
:10058F00E524D39400400674F62524F52420B20BFD
:10059F00E529D394FA500705298003E4F529E529C5
:1005AF00B4FA10E4F529E524C394645006740A25BF
:1005BF0024F524E52A6019E4F52A12098F8F1CE52A
:1005CF001CB4010C7B007A00790A120A917509019B
:1005DF00E52075F00A842430F50CE52075F00A84C7
:1005EF00E5F02430F50DE52475F064842430F51121
:1005FF00E52475F06484E5F075F00A842430F51273
:0D060F00E52475F00A84E5F02430F513228F
:10000E005389F0438901758A66758CFCC28DD28C3A
:05001E00D2A9D2AF22BF
:100B0300E4F5C9F5C8F5CC75CDDCF5CA75CBDCD2F7
:040B1300CAD2AD2273
:100AED00C2A512000E120B03120AD21208BE120773
:060AFD00171203CF80F583
:03000B000209F3F4
:1009F300C0E0C0D0758A66758CFC05080517E5173D
:100A030070020516C3940AE5169400400975160092
:0B0A1300751700752A01D0D0D0E0322A
:03002B0002061CAE
:10061C00C0E0C0F0C083C082C0D075D000C000C0A4
:10062C0001C002C003C004C005C006C007C2CF058C
:10063C002CE52C7002052BE52B7032E52C24FE608A
:10064C0017047029E520B40A06E5246432601EE51F
:10065C0020FD7C00E4FF8012E520B40A06E524644A
:10066C0032600AE524FD7C007F01120A6DC3E52C83
:10067C009402E52B94004006752B00752C00E51DAB
:10068C006401706C051AE51A70020519C39464E5CF
:10069C00199400405B751900751A00E52D940640FD
:1006AC0049752D00AB21AA22A92390000212032D1B
:1006BC0024D075F00AA4FF90000312032D24D02F30
:1006CC00F52090000812032D24D075F00AA4FF9099
:1006DC00000712032D24D075F064A42FFF9000099D
:1006EC0012032D24D02FF5248003752D00751D00C9
:1006FC00D007D006D005D004D003D002D001D00052
:0B070C00D0D0D082D083D0F0D0E032FB
:0C0976000A423F065B4F666D7D077F6FF5
:10085500EF14B40800505490086A75F003A4C583DA
:1008650025F0C5837302088202088602088A0208F9
:100875008E02089202089A0208A20208AAD2A4804F
:100885000ED2A48012D2A48016D2A4801AC2A4D2F9
:10089500A3D2A28016C2A4D2A3C2A2800EC2A4C2B1
:1008A500A3D2A28006C2A4C2A3C2A274422DF8E6B6
:0908B500F580120026E4F5802212
:100B1700EF4E600F7D027CC7DCFEDDFCEF1F70F03F
:030B27001E80ED40
:010B2A0022A8
:040026007F2BDFFE4F
:01002A0022B3
:0C09820001530001540001550001560013
:10091400E4FFA2B033FEE5531460121460191460AE
:100924002D2403702FEE702C7553018027EE702157
:10093400F554755302801DEE60047F018013055445
:10094400E554C39464400D7F037553038006EE6041
:0409540003E4F55370
:01095800227C
:10098F00E4FD120914E555146012047024BF010828
:10099F00E4F5567555018019AD078015BF01047D2B
:1009AF0002800B0556E556C3943240057D01E4F5F0
:0309BF0055AF052C
:0109C2002212
:100A6D008F4C8C4D8D4E120B417FA0120A1E120B16
:100A7D002BAF4C120A1E120B2BAF4E120A1E120B6D
:040A8D002B020B4AE3
:0209C3008F4F54
:1009C500120B417FA0120A1E120B2BAF4F120A1EEB
:1009D500120B2B120B417FA1120A1E120B2B120AAE
:0D09E500B48F507F01120B37120B4AAF5038
:0109F20022E2
:090B4100D2A0D2A1C2A0C2A122DF
:070B4A00C2A0D2A1D2A0223B
:020A1E00AD0722
:100A2000E4FB74807E00A803088006CEA2E713CE04
:100A300013D8F8FFEDF582EF558224FF92A0D2A1E2
:060A4000C2A10BBB08DCA3
:010A4600228D
:100AB400E4FFD2A0FED2A130A00D7480A806088065
:0D0AC40002C313D8FC4207C2A10EBE08E811
:010AD1002202
:0A0B3700EF24FF92A0D2A1C2A12278
:0B0B2B00D2A0D2A1A2A0E433FFC2A11F
:010B3600229C
:100AD20053877F75985053890F438920758BFA7518
:0B0AE2008DFAC2ABD28ED2AFD2AC2294
:080003008F993099FDC299228A
:060A91008B4F8A508951D1
:100A9700AB4FAA50A95185528275830012032DFFCF
:0C0AA7006007120003055280E7E4F552DE
:010AB3002220
:070B51007B007A00792E22DF
:03002300020A4787
:100A4700C0E0C0D075D000C000C00730980FAF2DF0
:100A5700052D742E2FF8A699751D01C298D007D0C1
:060A670000D0D0D0E03207
:10002E00020318E86480F8E933E83360110460F0E5
:10003E00ED33EC337009E8FCE9FDEAFEEBFF220438
:10004E0060DED3EB9FEA9EE99DE8C2E78CF0C2F733
:10005E0095F0400CE8CCF8E9CDF9EACEFAEBCFFBFF
:10006E001202E385D0F05804700320D5B3E8047073
:10007E00075002B2D502032292D5EC0460F7E4CC0D
:10008E00C0E0C398F8603B94186008400DD0E0FBC8
:10009E000202FAE4FBFAC9FC8028E830E406E4C95F
:1000AE00FBE4CAFCE830E305E4C9CACBFCE854071C
:1000BE006010F8C3E913F9EA13FAEB13FBEC13FC27
:1000CE00D8F130F52FC3E49CFCEF9BFFEE9AFEEDCA
:1000DE0099FDD0E0FBEF4E4D4C701222DB03020374
:1000EE001FEC2CFCEF33FFEE33FEED33FDED30E76E
:1000FE00EB0202FAEF2BFFEE3AFEED39FDD0E0FBFC
:10010E0050130BBB0003020322ED13FDEE13FEEFA3
:08011E0013FFEC13FC0202FACE
:10012600EC4D6011E8497017ED33EC3304600DE4D3
:10013600FCFFFEFD22E933E8330470F802031812CF
:1001460002E358046009E4CC2481500628500902D1
:10015600032228400302031FC0E0EB4A7044B98023
:1001660006D0E0FB02030EEF4E701CBD8008EBFFCD
:10017600EAFEE9FD80EBE98DF0A4FEE5F002020F50
:10018600E9CDF9EAFEEBFFEF89F0A4FCE5F0CE89B4
:10019600F0A42EFFE435F0CD89F0A42DFEE435F071
:1001A6008067EF4E7005BD80D780C3EF8BF0A4AC9F
:1001B600F0EE8BF0A42CFCE435F0F8EF8AF0A42CDA
:1001C600E5F038FCE433CB8DF0A42CFCE5F03BF8ED
:1001D600EE8AF0A42CFCE5F038F8E433CF89F0A4DD
:1001E6002CFCE5F038CF3400CE89F0A42FFFE5F0E3
:1001F6003EFEE433C98DF0A42EFEE5F039CD8AF03B
:10020600A42FFFE5F03EFEE43DFD33D0E0FB5007B2
:100216000BBB000F020322EC2CFCEF33FFEE33FE88
:06022600ED33FD0202FAB7
:10022C0074F8CC6480CCC86480C8F58204604FC379
:10023C00EB9FF5F0EA9E42F0E99D42F0E89C45F018
:10024C00603C501DE5825FFFE582D313CB5BCBF4A2
:10025C002B5582FB50280ABA002409B900200880CB
:10026C001DE5825BFBE582D313CF5FCFF4C3132F65
:10027C005582FF50090EBE00050DBD00010CC3EBED
:10028C009FF5F0EA9E42F0E99D42F0E89C45F06053
:09029C0007CC4820E701B3EC2275
:1002A50075F020800E75F010800575F0087D007ED4
:1002B500007F003392D530D5031203C1EC334010D3
:1002C500EF33FFEE33FEED33FDEC33FCD5F0ED22DD
:0E02D500E5F0247EA2D513CC92E7CDCEFF2219
:1002E300E9D2E7C933E833F892D5EDD2E7CD33EC61
:0702F30033FC5002B2D522DA
:1002FA00EC30E7100FBF000C0EBE00080DBD000465
:10030A000BEB6014A2D5EB13FCED92E7FD2274FF10
:10031A00FCFDFEFF22E480F8A2D574FF13FC7D8069
:03032A00E480EF7D
:030000000207C92B
:0C07C900787FE4F6D8FD75815602081018
:10032D00BB010CE58229F582E5833AF583E0225085
:10033D0006E92582F8E622BBFE06E92582F8E222CF
:0D034D00E58229F582E5833AF583E49322E9
:10035A00EF8DF0A4A8F0CF8CF0A428CE8DF0A42EB7
:02036A00FE2271
:10036C00BC000BBE0029EF8DF084FFADF022E4CC75
:10037C00F875F008EF2FFFEE33FEEC33FCEE9DEC3E
:10038C00984005FCEE9DFE0FD5F0E9E4CEFD22ED84
:10039C00F8F5F0EE8420D21CFEADF075F008EF2FCE
:1003AC00FFED33FD4007985006D5F0F222C398FDBF
:0503BC000FD5F0EA225C
:0E03C100C3E49FFFE49EFEE49DFDE49CFC224D
:1007D500020AEDE493A3F8E493A34003F68001F243
:1007E50008DFF48029E493A3F85407240CC8C33325
:1007F500C4540F4420C8834004F456800146F6DFF4
:10080500E4800B0102040810204080900959E47E21
:10081500019360BCA3FF543F30E509541FFEE493E8
:10082500A360010ECF54C025E060A840B8E493A3AF
:10083500FAE493A3F8E493A3C8C582C8CAC583CADA
:10084500F0A3C8C582C8CAC583CADFE9DEE780BE92
:01098E000068
:00000001FF
