:10078D0001210001320001090101240A0129320170
:10079D0025000C0C663D2D2D2C643D2D2D2D2E0090
:1006F200C3E508952BE4952A4003E4F508AF297E6B
:1007020000AC2AAD2B120262AC06AD07E41201B2B4
:100712007B0A7AD77923783C12002EC004C005C028
:1007220006C007AC08E41201B7A804A905AA06ABE3
:1007320007D007D006D005D004120134600250035E
:06074200D2A722C2A7228B
:1002D700E50924FE70030203A814700302047D24B9
:1002E7000260030205181206F2E52F6020E4F52FDD
:1002F7001207C68F20E520B40103750901E520B474
:100307000203750902E520B4030375090320B20B44
:10031700E522D394FA500705228003E4F522E5226B
:10032700B4FA10E4F522FF1207FA8F247F011207AF
:10033700FA8F29E524FD7C007E037FE81202748E84
:100347002A8F2BE521B401091209858B268A278973
:1003570028E52475F00A84FD7C007F03120689E5F1
:100367002475F00A84E5F0FD7C007F04120689E518
:100377002975F06484FD7C007F05120689E52975DF
:10038700F06484E5F075F00A84FD7C007F061206B0
:1003970089E52975F00A84E5F0FD7C007F070206F0
:1003A700897D017C007F04120689E52475F00A84A3
:1003B700FD7C007F05120689E52475F00A84E5F0C7
:1003C700FD7C007F0612068920B10BE51CD394FA49
:1003D7005007051C8003E4F51CE51CB4FA0CE4F592
:1003E7001CE524D394004002152420B30BE523D346
:1003F70094FA500705238003E4F523E523B4FA0CA8
:10040700E4F523E524C3943250020524E52F60194F
:10041700E4F52F1207C68F20E520B4010C7B007A84
:1004270000790C1208C8750901E524FD7C007E03DC
:100437007FE81202748E2A8F2BE52475F00A842434
:1004470030F50EE52475F00A84E5F02430F50FE564
:100457002975F064842430F513E52975F06484E583
:10046700F075F00A842430F514E52975F00A84E55F
:10047700F02430F515227D027C007F04120689E501
:100487002975F06484FD7C007F05120689E52975CE
:10049700F06484E5F075F00A84FD7C007F0612069F
:1004A70089E52975F00A84E5F0FD7C007F071206CF
:1004B7008920B10BE51FD394FA5007051F8003E489
:1004C700F51FE51FB4FA10E4F51FE529D3940040A2
:1004D7000674F62529F52920B30BE52ED394FA5097
:1004E70007052E8003E4F52EE52EB4FA10E4F52E69
:1004F700E529C394645006740A2529F529E52F6078
:1005070010E4F52F1207C68F20E520B40103750903
:020517000122BF
:10000E005389F0438901758A66758CFCC28DD28C3A
:05001E00D2A9D2AF22BF
:10092400E4F5C9F5C8F5CC75CDDCF5CA75CBDCD2D8
:04093400CAD2AD2254
:10094C00C2A512000E1209241209091206F2120293
:03095C00D780F849
:03000B0002082ABE
:10082A00C0E0C0D0758A66758CFC05080519E51903
:10083A0070020518C3940AE5189400400975180057
:0B084A00751900752F01D0D0D0E032EE
:03002B00020519B2
:10051900C0E0C0F0C083C082C0D075D000C000C0A8
:1005290001C002C003C004C005C006C007C2CF0590
:1005390031E53170020530E5307028E53124FE607F
:100549001204701FE524640A6019E524FD7C00E4A7
:10055900FF800DE5296432600AE529FD7C007F01F1
:100569001208A4C3E5319402E530940040067530C1
:1005790000753100E5216401705F051EE51E7002FA
:10058900051DC39464E51D9400404E751D00751E3C
:1005990000753200AB26AA27A9289000021202355D
:1005A90075F00AA4FF9000031202352F24F0F524F8
:1005B90090000812023524D075F00AA4FF900007B4
:1005C90012023524D075F064A42FFF90000912029D
:1005D9003524D02FF529752100D007D006D005D0B4
:1005E90004D003D002D001D000D0D0D082D083D0A3
:0405F900F0D0E0322C
:0C07AD000A473F065B4F666D7D077F6FBB
:10068900EF14B40800505490069E75F003A4C58376
:1006990025F0C583730206B60206BA0206BE020633
:1006A900C20206C60206CE0206D60206DED2A48021
:1006B9000ED2A48012D2A48016D2A4801AC2A4D2C7
:1006C900A3D2A28016C2A4D2A3C2A2800EC2A4C27F
:1006D900A3D2A28006C2A4C2A3C2A274472DF8E67F
:0906E900F580120026E4F58022E0
:10093800EF4E600F7D027CC7DCFEDDFCEF1F70F020
:030948001E80ED21
:01094B002289
:040026007F2BDFFE4F
:01002A0022B3
:0C07B900015800015900015A00015B00CA
:10074800E4FFA2B033FEE558146012146019146077
:100758002D2403702FEE702C7558018027EE702120
:10076800F559755802801DEE60047F018013055904
:10077800E559C39464400D7F037558038006EE6005
:0407880003E4F55839
:01078C00224A
:1007C600E4FD120748E55A146012047024BF0108BC
:1007D600E4F55B755A018019AD078015BF01047DEC
:1007E60002800B055BE55BC3943240057D01E4F5B1
:0307F6005AAF05F2
:0107F90022DD
:1008A4008F518C528D531209757FA012085512096D
:1008B4005FAF5112085512095FAF53120855120960
:0408C4005F02097E48
:0207FA008F541A
:1007FC001209757FA012085512095FAF54120855E3
:10080C0012095F1209757FA112085512095F1208AF
:0D081C00EB8F557F0112096B12097EAF555D
:0108290022AC
:09097500D2A0D2A1C2A0C2A122AD
:07097E00C2A0D2A1D2A02209
:02085500AD07ED
:10085700E4FB74807E00A803088006CEA2E713CECF
:1008670013D8F8FFEDF582EF558224FF92A0D2A1AD
:06087700C2A10BBB08DC6E
:01087D002258
:1008EB00E4FFD2A0FED2A130A00D7480A806088030
:0D08FB0002C313D8FC4207C2A10EBE08E8DC
:0109080022CC
:0A096B00EF24FF92A0D2A1C2A12246
:0B095F00D2A0D2A1A2A0E433FFC2A1ED
:01096A00226A
:1009090053877F75985053890F438920758BFA75E2
:0B0919008DFAC2ABD28ED2AFD2AC225E
:080003008F993099FDC299228A
:0608C8008B548A5589568D
:1008CE00AB54AA55A956855782758300120235FF7F
:0C08DE006007120003055780E7E4F5579F
:0108EA0022EB
:070985007B007A00793322A8
:0300230002087E52
:10087E00C0E0C0D075D000C000C00730980FAF32B6
:10088E00053274332FF8A699752101C298D007D07E
:06089E0000D0D0D0E032D2
:10002E00EC4D6011E8497017ED33EC3304600DE4CC
:10003E00FCFFFEFD22E933E8330470F802022012C1
:10004E0001EB58046009E4CC2481500628500902C3
:10005E00022A284003020227C0E0EB4A7044B9800E
:10006E0006D0E0FB020216EF4E701CBD8008EBFFBF
:10007E00EAFEE9FD80EBE98DF0A4FEE5F002011742
:10008E00E9CDF9EAFEEBFFEF89F0A4FCE5F0CE89AD
:10009E00F0A42EFFE435F0CD89F0A42DFEE435F06A
:1000AE008067EF4E7005BD80D780C3EF8BF0A4AC98
:1000BE00F0EE8BF0A42CFCE435F0F8EF8AF0A42CD3
:1000CE00E5F038FCE433CB8DF0A42CFCE5F03BF8E6
:1000DE00EE8AF0A42CFCE5F038F8E433CF89F0A4D6
:1000EE002CFCE5F038CF3400CE89F0A42FFFE5F0DC
:1000FE003EFEE433C98DF0A42EFEE5F039CD8AF034
:10010E00A42FFFE5F03EFEE43DFD33D0E0FB5007AB
:10011E000BBB000F02022AEC2CFCEF33FFEE33FE7A
:06012E00ED33FD020202A8
:1001340074F8CC6480CCC86480C8F58204604FC372
:10014400EB9FF5F0EA9E42F0E99D42F0E89C45F011
:10015400603C501DE5825FFFE582D313CB5BCBF49B
:100164002B5582FB50280ABA002409B900200880C4
:100174001DE5825BFBE582D313CF5FCFF4C3132F5E
:100184005582FF50090EBE00050DBD00010CC3EBE6
:100194009FF5F0EA9E42F0E99D42F0E89C45F0604C
:0901A40007CC4820E701B3EC226E
:1001AD0075F020800E75F010800575F0087D007ECD
:1001BD00007F003392D530D5031202C9EC334010C5
:1001CD00EF33FFEE33FEED33FDEC33FCD5F0ED22D6
:0E01DD00E5F0247EA2D513CC92E7CDCEFF2212
:1001EB00E9D2E7C933E833F892D5EDD2E7CD33EC5A
:0701FB0033FC5002B2D522D3
:10020200EC30E7100FBF000C0EBE00080DBD00045D
:100212000BEB6014A2D5EB13FCED92E7FD2274FF09
:10022200FCFDFEFF22E480F8A2D574FF13FC7D8062
:03023200E480EF76
:030000000205FDF9
:0C05FD00787FE4F6D8FD75815B020644AF
:10023500BB010CE58229F582E5833AF583E022507E
:1002450006E92582F8E622BBFE06E92582F8E222C8
:0D025500E58229F582E5833AF583E49322E2
:10026200EF8DF0A4A8F0CF8CF0A428CE8DF0A42EB0
:02027200FE226A
:10027400BC000BBE0029EF8DF084FFADF022E4CC6E
:10028400F875F008EF2FFFEE33FEEC33FCEE9DEC37
:10029400984005FCEE9DFE0FD5F0E9E4CEFD22ED7D
:1002A400F8F5F0EE8420D21CFEADF075F008EF2FC7
:1002B400FFED33FD4007985006D5F0F222C398FDB8
:0502C4000FD5F0EA2255
:0E02C900C3E49FFFE49EFEE49DFDE49CFC2246
:1006090002094CE493A3F8E493A34003F68001F2B2
:1006190008DFF48029E493A3F85407240CC8C333F2
:10062900C4540F4420C8834004F456800146F6DFC1
:10063900E4800B010204081020408090078DE47EBD
:10064900019360BCA3FF543F30E509541FFEE493B6
:10065900A360010ECF54C025E060A840B8E493A37D
:10066900FAE493A3F8E493A3C8C582C8CAC583CAA8
:10067900F0A3C8C582C8CAC583CADFE9DEE780BE60
:0107C5000033
:00000001FF
