:1007280001090101210A0126320122000C0C663D53
:0A0738002D2D2C643D2D2D2D2E00DB
:10065900C3E5089528E495274003E4F508AF267E0D
:1006690000AC27AD28120262AC06AD07E41201B254
:100679007B0A7AD77923783C12002EC004C005C0C2
:1006890006C007AC08E41201B7A804A905AA06AB7D
:1006990007D007D006D005D00412013460025003F8
:0606A900D2A722C2A72225
:1002D700E50924FE700302039A14700302044924FB
:1002E7000260030204E4120659E52C6020E4F52CB1
:1002F7001206F48F1EE51EB40103750901E51EB44D
:100307000203750902E51EB4030375090320B20B46
:10031700E51FD394FA5007051F8003E4F51FE51F77
:10032700B4FA10E4F51FFF12075B8F217F01120754
:100337005B8F26E521FD7C007E037FE81202748E29
:10034700278F28E52175F00A84FD7C007F031205BD
:10035700F0E52175F00A84E5F0FD7C007F041205C5
:10036700F0E52675F06484FD7C007F051205F0E555
:100377002675F06484E5F075F00A84FD7C007F063D
:100387001205F0E52675F00A84E5F0FD7C007F078D
:100397000205F07D017C007F041205F0E52175F070
:1003A7000A84FD7C007F051205F0E52175F00A84BB
:1003B700E5F0FD7C007F061205F020B10BE51CD3AC
:1003C70094FA5007051C8003E4F51CE51CB4FA0CED
:1003D700E4F51CE521D394004002152120B30BE579
:1003E70020D394FA500705208003E4F520E520B4D4
:1003F700FA0CE4F520E521C3943250020521E52CDF
:100407006019E4F52C1206F48F1EE51EB4010C7B6F
:10041700007A00790C120803750901E521FD7C00BB
:100427007E037FE81202748E278F28E52175F00A74
:10043700842430F50EE52175F00A84E5F02430F5C3
:100447000F227D027C007F041205F0E52675F0641B
:1004570084FD7C007F051205F0E52675F06484E5D0
:10046700F075F00A84FD7C007F061205F0E526751D
:10047700F00A84E5F0FD7C007F071205F020B10B40
:10048700E51DD394FA5007051D8003E4F51DE51D0E
:10049700B4FA10E4F51DE526D39400400674F6255A
:1004A70026F52620B30BE52BD394FA5007052B80AE
:1004B70003E4F52BE52BB4FA10E4F52BE526C394FA
:1004C700645006740A2526F526E52C6010E4F52C01
:0E04D7001206F48F1EE51EB401037509012202
:10000E005389F0438901758A66758CFCC28DD28C3A
:05001E00D2A9D2AF22BF
:1008C00053890F438910E4F58B758DDCC28FD28E6E
:0308D000D2AB2286
:10089800E4F5C9F5C8F5CC75CDDCF5CA75CBDCD265
:0408A800CAD2AD22E1
:10088200C2A512000E1208C01208981208671206BA
:06089200591202D780F8A4
:03000B0002078B5E
:10078B00C0E0C0D0758A66758CFC05080519E519A3
:10079B0070020518C3940AE51894004009751800F7
:0B07AB00751900752C01D0D0D0E03291
:03002B000205715A
:10057100C0E0C0F0C083C082C0D075D000C000C050
:1005810001C002C003C004C005C006C007C2CF0538
:100591002EE52E7002052DE52D7028E52E24FE6036
:1005A1001204701FE521640A6019E521FD7C00E455
:1005B100FF800DE5266432600AE526FD7C007F019F
:1005C1001207DFC3E52E9402E52D94004006752D38
:1005D10000752E00D007D006D005D004D003D0027C
:0F05E100D001D000D0D0D082D083D0F0D0E03283
:0C0742000A443F065B4F666D7D077F6F29
:1005F000EF14B40800505490060575F003A4C583A9
:1006000025F0C5837302061D020621020625020697
:100610002902062D02063502063D020645D2A480B7
:100620000ED2A48012D2A48016D2A4801AC2A4D260
:10063000A3D2A28016C2A4D2A3C2A2800EC2A4C218
:10064000A3D2A28006C2A4C2A3C2A274442DF8E61B
:09065000F580120026E4F5802279
:1008AC00EF4E600F7D027CC7DCFEDDFCEF1F70F0AD
:0308BC001E80EDAE
:0108BF002216
:040026007F2BDFFE4F
:01002A0022B3
:0C074E0001550001560001570001580041
:1006AF00E4FFA2B033FEE555146012146019146014
:1006BF002D2403702FEE702C7555018027EE7021BD
:1006CF00F556755502801DEE60047F0180130556A7
:1006DF00E556C39464400D7F037555038006EE60A5
:0406EF0003E4F555D6
:0106F30022E4
:1006F400E4FD1206AFE557146012047024BF01082C
:10070400E4F5587557018019AD078015BF01047DC4
:1007140002800B0558E558C3943240057D01E4F589
:0307240057AF05C7
:0107270022AF
:1007DF008F4E8C4F8D501208E97FA01207B612086A
:1007EF00D3AF4E1207B61208D3AF501207B6120886
:0407FF00D30208F227
:02075B008F51BC
:10075D001208E97FA01207B61208D3AF511207B6DF
:10076D001208D31208E97FA11207B61208D3120896
:0D077D00498F527F011208DF1208F2AF52BF
:01078A00224C
:0908E900D2A0D2A1C2A0C2A1223A
:0708F200C2A0D2A1D2A02296
:0207B600AD078D
:1007B800E4FB74807E00A803088006CEA2E713CE6F
:1007C80013D8F8FFEDF582EF558224FF92A0D2A14D
:0607D800C2A10BBB08DC0E
:0107DE0022F8
:10084900E4FFD2A0FED2A130A00D7480A8060880D2
:0D08590002C313D8FC4207C2A10EBE08E87E
:01086600226F
:0A08DF00EF24FF92A0D2A1C2A122D3
:0B08D300D2A0D2A1A2A0E433FFC2A17A
:0108DE0022F7
:1008670053877F75985053890F438920758BFA7585
:0B0877008DFAC2ABD28ED2AFD2AC2201
:080003008F993099FDC299228A
:060803008B518A5289535B
:10080900AB51AA52A953855482758300120235FF50
:0C0819006007120003055480E7E4F5546A
:0108250022B0
:0708F9007B007A00792F2239
:03002300020826AA
:10082600C0E0C0D075D000C000C00730980CAF4300
:100836000543742F2FF8A699C298D007D000D0D0C0
:03084600D0E032CD
:10002E00EC4D6011E8497017ED33EC3304600DE4CC
:10003E00FCFFFEFD22E933E8330470F802022012C1
:10004E0001EB58046009E4CC2481500628500902C3
:10005E00022A284003020227C0E0EB4A7044B9800E
:10006E0006D0E0FB020216EF4E701CBD8008EBFFBF
:10007E00EAFEE9FD80EBE98DF0A4FEE5F002011742
:10008E00E9CDF9EAFEEBFFEF89F0A4FCE5F0CE89AD
:10009E00F0A42EFFE435F0CD89F0A42DFEE435F06A
:1000AE008067EF4E7005BD80D780C3EF8BF0A4AC98
:1000BE00F0EE8BF0A42CFCE435F0F8EF8AF0A42CD3
:1000CE00E5F038FCE433CB8DF0A42CFCE5F03BF8E6
:1000DE00EE8AF0A42CFCE5F038F8E433CF89F0A4D6
:1000EE002CFCE5F038CF3400CE89F0A42FFFE5F0DC
:1000FE003EFEE433C98DF0A42EFEE5F039CD8AF034
:10010E00A42FFFE5F03EFEE43DFD33D0E0FB5007AB
:10011E000BBB000F02022AEC2CFCEF33FFEE33FE7A
:06012E00ED33FD020202A8
:1001340074F8CC6480CCC86480C8F58204604FC372
:10014400EB9FF5F0EA9E42F0E99D42F0E89C45F011
:10015400603C501DE5825FFFE582D313CB5BCBF49B
:100164002B5582FB50280ABA002409B900200880C4
:100174001DE5825BFBE582D313CF5FCFF4C3132F5E
:100184005582FF50090EBE00050DBD00010CC3EBE6
:100194009FF5F0EA9E42F0E99D42F0E89C45F0604C
:0901A40007CC4820E701B3EC226E
:1001AD0075F020800E75F010800575F0087D007ECD
:1001BD00007F003392D530D5031202C9EC334010C5
:1001CD00EF33FFEE33FEED33FDEC33FCD5F0ED22D6
:0E01DD00E5F0247EA2D513CC92E7CDCEFF2212
:1001EB00E9D2E7C933E833F892D5EDD2E7CD33EC5A
:0701FB0033FC5002B2D522D3
:10020200EC30E7100FBF000C0EBE00080DBD00045D
:100212000BEB6014A2D5EB13FCED92E7FD2274FF09
:10022200FCFDFEFF22E480F8A2D574FF13FC7D8062
:03023200E480EF76
:030000000204E512
:0C04E500787FE4F6D8FD75815802052CE4
:10023500BB010CE58229F582E5833AF583E022507E
:1002450006E92582F8E622BBFE06E92582F8E222C8
:0D025500E58229F582E5833AF583E49322E2
:10026200EF8DF0A4A8F0CF8CF0A428CE8DF0A42EB0
:02027200FE226A
:10027400BC000BBE0029EF8DF084FFADF022E4CC6E
:10028400F875F008EF2FFFEE33FEEC33FCEE9DEC37
:10029400984005FCEE9DFE0FD5F0E9E4CEFD22ED7D
:1002A400F8F5F0EE8420D21CFEADF075F008EF2FC7
:1002B400FFED33FD4007985006D5F0F222C398FDB8
:0502C4000FD5F0EA2255
:0E02C900C3E49FFFE49EFEE49DFDE49CFC2246
:1004F100020882E493A3F8E493A34003F68001F297
:1005010008DFF48029E493A3F85407240CC8C3330B
:10051100C4540F4420C8834004F456800146F6DFDA
:10052100E4800B0102040810204080900728E47E3B
:10053100019360BCA3FF543F30E509541FFEE493CF
:10054100A360010ECF54C025E060A840B8E493A396
:10055100FAE493A3F8E493A3C8C582C8CAC583CAC1
:10056100F0A3C8C582C8CAC583CADFE9DEE780BE79
:01075A00009E
:00000001FF
